:020003000AA64B
:0200050008955C
:020007000C39B2
:0200090009717B
:100BCB0025750020202020202020202020202020E0
:040BDB0020202000B6
:100AA6007F011204E77F021204E77F031204E712B4
:0D0AB6000B6A1209361209D5E4FF02057023
:1008950020A3287D017F0212062020A31B051FE54A
:1008A5001FD394804003751F80AF1F120C2FAF1FFD
:1008B500120C347F031205F930A3FD20A4D27D016B
:1008C5007F0212062020A415D51F03751F01AF1F37
:1008D500120C2FAF1F120C347F031205F920A4B0A0
:0208E50080FB96
:020C390080FE3B
:10097100E4FD7F011206207525FF75260B7527CB37
:10098100851F287B007A00790E12006A7BFF7A0BA3
:1009910079CEE4FD7F011208E77B007A00790EE44D
:0809A100FD7F011208E780C888
:03000B0002036F7E
:10036A00C2AF80FE3212036E85D00B75D008FAC276
:10037A008CE58A24F7F58AE58C34D8F58CD28CEC96
:10038A00244FF8E6BC030274FFC39581B4140040FD
:10039A00CF7904784616E608700BC2AFE630E1035F
:1003AA004418F6D2AF08D9EDEA8BD0300903D20A45
:1003BA0022D50DFAC0E0C0D0C0F0C083C082C00010
:1003CA00C001C002C003C004C005C006C007E50CD6
:1003DA00232447F87440C2AF46F6D2AFD209E50CDF
:1003EA00FF232447F80F0808EFB50C06100A034349
:1003FA008701BF04047F007847E630E4E800E50C93
:10040A00C39F5020050C744E250CF8E6FDA6810802
:10041A00E6AE0CBE030274FFCDF8E86D60E008E6B4
:10042A00C0E080F6E50CD39F4027E50C244FF8E6A0
:10043A00AE0CBE030274FFFD18E6CDF8E5816D60CF
:10044A0006D0E0F61880F5E50C244EC8F6150C80A7
:10045A00D3750D05E50C232447F87F04C2AFE610D7
:02046A00E61E8C
:10046C0030E00310E20C7F0030E10730E3047F083A
:10047C0054F4C2E7C6D2AF54804207C20922F6D266
:10048C00AFD007D006D005D004D003D002D001D015
:10049C0000D082D083D0F0D0D0D0E0C20922784EE8
:1004AC00A68174036006FF0876FFDFFB7F04E47807
:1004BC0046F608F608DFFA784776309000037401A8
:1004CC0093C0E0E493C0E0750D05438901758AF093
:0B04DC00758CD8D28CD2AFD2A92203BD
:100A67000001000200040008001000200040008080
:100A77000100020004000800100020004000800070
:100BF300C2C8D2C9D2CAE4F5C0E5C020E7FBC2CA65
:010C030022CE
:050A4700E5372480FFEB
:100A4C00120BF3C2C8C2C9D2CA8FC07F057E001276
:0B0A5C000B34C2CA7F057E00020B3481
:100B1900120BF3D2C8C2C9D2CA8FC07F057E001298
:0B0B29000B34C2CA7F057E00020B34B3
:10093600C2C9D2CC7F0A7E00120AFD7F30120A4C51
:100946007F057E00120B347F0C120A4C7F057E0059
:10095600120B347F01120A4C7F057E00120B347F86
:0B09660006120A4C7F057E00020B34D5
:0407D4008E3D8F3E89
:1007D8007F34120A4CE4F53FE4F540E5402480FFFD
:1007E800120A4CE53F70047F8080027F88120A4C11
:1007F800E4F541053EE53EAE3D7002053D14F58247
:100808008E83E493FF120B190541E541C394104010
:10081800E20540E540C3942040C1053FE53FC3944D
:0D0828000240B57F36120A4C7F30020A4CA8
:0608E7008B228A23892404
:1008ED00EF70047F808013BF01047F90800CBF02E6
:1008FD00047F888005BF03027F98EF2DFF120A4CFD
:10090D00AB22AA23A924120746D39400401A05242A
:10091D00E5247002052314F9120746FF120B197F07
:08092D00057E00120B3480D896
:01093500229F
:100AC300120BF375C0FFD2C8D2C9D2CA000000000E
:0C0AD3000000000000000000AFC0C2CA1C
:010ADF0022F4
:06067F008F368D378B3829
:10068500E536C394804003020745E537C3944040EF
:1006950003020745533801E536540FFFC3740F9F16
:1006A500F53AE536C4540FF536E537C394205005C1
:1006B500753980800375398853371FC2AF7F36126D
:1006C5000A4C120A47E5362539FF120A4C120AC3AD
:1006D500753B008F3C120AC3EF753C00F53B120ACF
:1006E500C3EF423CD2AFE538B40118E53A25E02422
:1006F50067F582E4340AF583E493423B740193423F
:100705003C801EE53A25E02467F582E4340AF5834A
:10071500E493FE740193F4FFEEF4FEEF523CEE52C7
:100725003BC2AF120A47E5362539FF120A4CE53BB5
:10073500FF120B19AF3C120B197F30120A4CD2AFC6
:010745002291
:10083500EF20E005E4F54580037545FF7F36120A94
:100845004CE4F544E544C394095040E4F543E4F52C
:1008550042C2AFE5432480FF120A4CE542248025BD
:1008650044FF120A4CAF45120B19AF45120B19D2B2
:10087500AF0542E542C3940840D70543E543C39419
:100885002040CB74082544F54480B97F30020A4CDA
:100BDF00D3EF9400EE9400400A000000EF1F70F076
:040BEF001E80ED2255
:100AFD00D3EF9400EE940040120000007D0B7CBEFD
:0B0B0D00DCFEDDFCEF1F70E81E80E541
:010B180022BA
:100BB500D3EF9400EE9400400C007D19DDFEEF1F8D
:050BC50070EE1E80EB44
:010BCA002208
:100B8400D3EF9400EE9400400F7D6C7C91DCFEDD8D
:080B9400FCEF1F70EB1E80E86E
:010B9C002236
:100B3400D3EF9400EE9400401100007D027C0FDCA2
:0A0B4400FEDDFCEF1F70E91E80E6E5
:010B4E002284
:100A8700D3EF9400EE9400401500007D057C347B85
:0E0A9700C3DBFEDCFCDDFAEF1F70E51E80E223
:010AA500222E
:100B6A00E4F593F594F591F592F595F596F5B1F5C9
:0A0B7A00B2F5B3F5B4F5C9F5CA22CF
:050C2900007F0BDFFE5F
:010C2E0022A3
:0F0C0400D2A0D2A1120C29C2A0120C29C2A12287
:0A0C1F00C2A0D2A1120C29D2A0221B
:100B9D00EF6004C2A08002D2A0120C29D2A1120CC7
:080BAD0029C2A1D2A0020C290B
:030B4F00120A2661
:100B5200D2A0120C29D2A1120C2930A007C2A112D4
:080B62000C1FC322C2A1D32223
:020A2600AE0719
:100A2800E4FDEE30E704D2A08002C2A0120C29D265
:0E0A3800A1EE25E0FE120C29C2A10DBD08E4BE
:010A4600228D
:100AE000E4FDD2A1120C29EE25E0FE30A00343065E
:0C0AF00001C2A1120C290DBD08E8AF06E0
:010AFC0022D7
:0209A900AC0799
:1009AB00AE04120C047F90120B4FAF04120B4F12BC
:1009BB000C047F91120A26120B52120AE0AE07E4C6
:0909CB00FF120B9D120C1FAF0678
:0109D4002200
:1009D500E5A254CFF5A2E4F5D8F5E9F5F975D90204
:1009E500F5F275EA2075FA2075DA4275F34075EB74
:0A09F5002075FB2075DB42D2DE22E4
:050C2F008FEA8FFA229C
:050C34008FEB8FFB2295
:1004E700EFD3940340037FFF2274472F2FF8E620B2
:1004F700E5F4C2AFE64430F6D2AFAE0CEEC39F5080
:10050700210E744E2EF8E6F908E618BE030274FFB2
:10051700FDED69600909E71919F7090980F316164E
:1005270080DAEED39F400405810581EED39F4022F8
:10053700744E2EF808E6F9EEB50C02A981180606E6
:10054700E6FDED6960091919E70909F71980F31E36
:1005570080D9EF244EF8E604F8EF2F0490000393B8
:09056700F608EF2F93F67F002245
:10057000EFD3940340037FFF22EF232447F8E630B4
:10058000E5F4C2AFE6548CF6D2AFE50CB5070A74B9
:100590004E2FF8E6F5810203E6502E744F2FF8E651
:1005A000BF030274FFFD18E6F9744E2FF8FBE6FC5A
:1005B000E96C6008A805E7F61D1980F4A803A605F4
:1005C0001FE50CB507E37F0022744F2FF8E6FD18F6
:1005D00086010F744E2FF8A601088604E50CB507B6
:1005E00002AC81ED6C60080D09A805E6F780F4E522
:0905F0000CB507DE89817F0022B1
:1005F900EFD3940340037FFF22EF232447F8C2AFD0
:10060900E630E50530E002D2E4D2E2C6D2AF7F009F
:0706190030E2010F0203B8FB
:100620008FF0E4FFFEE50C232446F8C2A930F70D55
:100630007F08E6600B2DF660325030800730F106FF
:10064000EDF660277E020830F010C2AFE610E72515
:100650000E30E20CD2AF7F048014C2AFE610E71573
:1006600054EC4EF6D2AFD2A90203E67F0808EF445D
:0F06700083F4C2AF56C6D2AFD2A954804FFF2237
:03000000020C13DC
:0C0C1300787FE4F6D8FD7581510204AA38
:10074600BB010689828A83E0225002E722BBFE02B1
:09075600E32289828A83E49322E4
:10000E00E5312425F8E605312278223007027825DD
:10001E00E475F00112079E0207462000EB7F2ED2F8
:10002E00008018EF540F2490D43440D4FF30040BCA
:10003E00EF24BFB41A0050032461FFE532600215AD
:10004E00320535E5357002053430070D7822E4753A
:10005E00F00112079EEF02078C0209FF7403D2070C
:10006E008003E4C207F5318B228A238924E4F5321A
:10007E00F534F535E53260077F2012004980F575BD
:10008E0033FFC201C200C202C203C205C206C208C9
:10009E00120017FF700D3007057F0012005AAF35A2
:1000AE00AE3422B4255FC2D5C204120017FF24D08D
:1000BE00B40A00501A75F00A783230D50508B6FF2A
:1000CE000106C6A426F620D5047002D20380D924D8
:1000DE00CFB41A00EF5004C2E5D20402025AD20184
:1000EE0080C6D20080C0D20280BCD2D580BAD205E2
:1000FE0080B47F201200492002077401B5320040FF
:10010E00F112000EFF120049020082D208D20680C0
:10011E009512000EFB12000EFA12000EF94A4B70E9
:10012E0006792B7A037BFF20022EE532602A7E00B1
:10013E008E8275830012075F60060EEE653370F0D7
:10014E00C2D5EBC0E0EAC0E0E9C0E0EE1202A1D0F9
:10015E00E0F9D0E0FAD0E0FB120746FF60AAEBC050
:10016E00E0EAC0E0E9C0E0120049D0E02401F9D095
:10017E00E03400FAD0E0FBE5330460DCD533D980FF
:10018E00877BFF7A02799DD202809C79108002795A
:10019E0008C206C2088008D2D5790A8004790AC23C
:1001AE00D5E533047002F533E4FAFDFEFF12000EBE
:1001BE00FC7B0820011312000EFD7B1030000A128A
:1001CE00000EFE12000EFF7B20EC3382D592D5502E
:1001DE0013C3E43000069FFFE49EFEE42001039D5E
:1001EE00FDE49CFCE4CBF8C201EC700CCFCECDCC80
:1001FE00E824F8F870F38017C3EF33FFEE33FEED0B
:10020E0033FDEC33FCEB33FB994002FB0FD8E9EBEB
:10021E00300105F8D0E0C448B201C0E00AEC4D4E02
:10022E004F78207B0070C2EAB5330040BCC0E012AC
:10023E0002A3D0F0D0E0200104C4C0E0C4B201C0DB
:10024E00F0120032D0F0D5F0EB0200821207AE01B0
:10025E001F5301995800F04C00EC42019D4F01A52F
:0F026E004401A54901054301AB55018F46018F9E
:10027D0045018F47034B5000F42D00F82E011B2B29
:10028D0000FC2301192003342A00B4480000011397
:10029D003F3F3F00790AA2D5200314300509B9105C
:1002AD00020404B9080104A2D5200602500104205D
:1002BD0002689202B532005034C0E07F203003193D
:1002CD007F30A20272067205500F1202FAC202C2EC
:1002DD0006C205C2087F30800F300503E9C0E01269
:1002ED000049300503D0E0F9D0E0B532CC30051728
:1002FD007F30B9100C1200497F583004077F788089
:10030D0003B908031200493002057F2D0200497F11
:10031D00202008F87F2B2006F322920280CF286E32
:10032D00756C6C2900D20112000E3001F8C20178F3
:10033D003230D50108F60200B42D50434958120051
:10034D000E2403B405004001E49003469312003AD5
:0D035D00743A12003AD2037532040201997D
:10075F00BB010CE58229F582E5833AF583E022504F
:10076F0006E92582F8E622BBFE06E92582F8E22299
:0D077F00E58229F582E5833AF583E49322B3
:10078C00BB010689828A83F0225002F722BBFE014C
:02079C00F32246
:10079E00FAE6FB0808E6F925F0F618E6CA3AF6225C
:1007AE00D083D082F8E4937012740193700DA3A3DA
:1007BE0093F8740193F5828883E4737402936860EE
:0607CE00EFA3A3A380DFEE
:1009FF00EFB40A07740D120A0A740A309811A899F5
:100A0F00B8130CC2983098FDA899C298B811F63057
:070A1F0099FDC299F599222F
:00000001FF
