:02000300097F73
:020005000932BE
:020007000009EE
:10000E000A436F6D6D616E643A20006765744461DA
:03001E007461000A
:10094D0010374A4B4C4A4B000000000000000000DD
:02095D00000098
:10097F007F011204FF7F021204FF120966E4FF02D7
:02098F000588D9
:100932007BFF7A00790E1200887F377D1012083E05
:0B0942007BFF7A00791912008880E525
:0200090080FE77
:03000B0002038766
:10038200C2AF80FE3212038685D00B75D008FAC246
:100392008CE58A24F7F58AE58C34D8F58CD28CEC7E
:1003A200245EF8E6BC020274FFC39581B4140040D7
:1003B200CF7903785716E608700BC2AFE630E10337
:1003C2004418F6D2AF08D9EDEA8BD0300D03D20E25
:1003D20022D50DFAC0E0C0D0C0F0C083C082C000F8
:1003E200C001C002C003C004C005C006C007E50CBE
:1003F200232458F87440C2AF46F6D2AFD20DE50CB2
:10040200FF232458F80F0808EFB50C06100E03431B
:100412008701BF03047F007858E630E4E800E50C6A
:10042200C39F5020050C745D250CF8E6FDA68108DB
:10043200E6AE0CBE020274FFCDF8E86D60E008E69D
:10044200C0E080F6E50CD39F4027E50C245EF8E679
:10045200AE0CBE020274FFFD18E6CDF8E5816D60B8
:1004620006D0E0F61880F5E50C245DC8F6150C8080
:10047200D3750D05E50C232458F87F04C2AFE610AE
:02048200E61E74
:1004840030E00310E20C7F0030E10730E3047F0822
:1004940054F4C2E7C6D2AF54804207C20D22F6D24A
:1004A400AFD007D006D005D004D003D002D001D0FD
:1004B40000D082D083D0F0D0D0D0E0C20D22785DBD
:1004C400A68174026006FF0876FFDFFB7F03E478F1
:1004D40057F608F608DFFA7858763090000374016E
:1004E40093C0E0E493C0E0750D05438901758AF07B
:0B04F400758CD8D28CD2AFD2A92202A6
:06095F00011CFF0119FF5D
:1008E300200B26C2AC200A09200C06D20A8F99805D
:1008F30016AE1D051DEE5407244FF8A607E51D652A
:0A0903001A54077002D20BD2AC2286
:1008A3008F36E536B40A1B300B131206388F1CE45F
:1008B300FBFAFD7F0112063B751CFF80EA7F0D12D8
:1008C30008E3300B131206388F1CE4FBFAFD7F019B
:1008D30012063B751CFF80EAAF361208E3AF3622DF
:10090D00E51BB518131206388F19E4FBFAFD7F01AC
:10091D0012063B7519FF80E8AF180518EF54072430
:05092D0047F8E6FF227F
:030023000207B41D
:0D07B400C0E0C0F0C083C082C0D075D0107E
:1007C100C20930983FAF99C298EF24EF600824FE28
:1007D100700CD20C802EA20C9209C20C8026E51856
:1007E1002408FDE433FCE51B6D7001EC600CAE1BCD
:1007F100051BEE54072447F8A617E519F46005AF69
:1008010019120611209903300928C299E51A651DAC
:10081100601E200C1DAF1A051AEF5407244FF8E68D
:10082100F599C20BE51CF46009AF1C120611800298
:02083100C20AF9
:0B083300D0D0D082D083D0F0D0E032D3
:10096600759850438E40538EFE53890F758BE075F4
:090976008DFEC2ABD28ED2AC2280
:04083E008F228D2355
:10084200E4F52412090D8F25BF0D0375250AE52550
:1008520064086005E525B47F19E524602F15241589
:10086200227F081208A37F201208A37F081208A380
:10087200801AE52564116014E5256413600EAF2526
:10088200A822EFF6FF1208A305220524E52314FF90
:10089200E524C39F5006E525640A70A7A822E4F662
:0108A2002233
:1004FF00EFD3940240037FFF2274582F2FF8E6208A
:10050F00E5F4C2AFE64430F6D2AFAE0CEEC39F5067
:10051F00210E745D2EF8E6F908E618BE020274FF8C
:10052F00FDED69600909E71919F7090980F3161636
:10053F0080DAEED39F400405810581EED39F4022E0
:10054F00745D2EF808E6F9EEB50C02A981180606BF
:10055F00E6FDED6960091919E70909F71980F31E1E
:10056F0080D9EF245DF8E604F8EF2F049000039391
:09057F00F608EF2F93F67F00222D
:10058800EFD3940240037FFF22EF232458F8E6308C
:10059800E5F4C2AFE6548CF6D2AFE50CB5070A74A1
:1005A8005D2FF8E6F5810203FE502E745E2FF8E603
:1005B800BF020274FFFD18E6F9745D2FF8FBE6FC34
:1005C800E96C6008A805E7F61D1980F4A803A605DC
:1005D8001FE50CB507E37F0022745E2FF8E6FD18CF
:1005E80086010F745D2FF8A601088604E50CB5078F
:1005F80002AC81ED6C60080D09A805E6F780F4E50A
:090608000CB507DE89817F002298
:10061100EFD3940240037FFF22EF232458F8C2AFA7
:10062100E630E50530E002D2E4D2E2C6D2AF7F0087
:0706310030E2010F0203D0CB
:03063800AF0C22E2
:10063B008FF0E4FFFEE50C232457F8C2A930F70D29
:10064B007F08E6600B2DF660325030800730F106E4
:10065B00EDF660277E020830F010C2AFE610E725FA
:10066B000E30E20CD2AF7F048014C2AFE610E71558
:10067B0054EC4EF6D2AFD2A90203FE7F0808EF442A
:0F068B0083F4C2AF56C6D2AFD2A954804FFF221C
:03000000020728CC
:0C072800787FE4F6D8FD75815F02076F52
:10002600E5312425F8E605312278223007027825C5
:10003600E475F0011206F202069A2000EB7F2ED23A
:10004600008018EF540F2490D43440D4FF30040BB2
:10005600EF24BFB41A0050032461FFE53260021595
:10006600320535E5357002053430070D7822E47522
:10007600F0011206F2EF0206E00208A37403D207AB
:100086008003E4C207F5318B228A238924E4F53202
:10009600F534F535E53260077F2012006180F5758D
:1000A60033FFC201C200C202C203C205C206C208B1
:1000B60012002FFF700D3007057F00120072AF355A
:1000C600AE3422B4255FC2D5C20412002FFF24D05D
:1000D600B40A00501A75F00A783230D50508B6FF12
:1000E6000106C6A426F620D5047002D20380D924C0
:1000F600CFB41A00EF5004C2E5D204020272D20154
:1001060080C6D20080C0D20280BCD2D580BAD205C9
:1001160080B47F201200612002077401B5320040CE
:10012600F1120026FF12006102009AD208D2068060
:1001360095120026FB120026FA120026F94A4B7089
:100146000679437A037BFF20022EE532602A7E0081
:100156008E827583001206B360060EEE653370F06C
:10016600C2D5EBC0E0EAC0E0E9C0E0EE1202B9D0C9
:10017600E0F9D0E0FAD0E0FB12069AFF60AAEBC0E5
:10018600E0EAC0E0E9C0E0120061D0E02401F9D065
:10019600E03400FAD0E0FBE5330460DCD533D980E7
:1001A600877BFF7A0279B5D202809C79108002792A
:1001B60008C206C2088008D2D5790A8004790AC224
:1001C600D5E533047002F533E4FAFDFEFF1200268E
:1001D600FC7B08200113120026FD7B1030000A125A
:1001E6000026FE120026FF7B20EC3382D592D550E6
:1001F60013C3E43000069FFFE49EFEE42001039D46
:10020600FDE49CFCE4CBF8C201EC700CCFCECDCC67
:10021600E824F8F870F38017C3EF33FFEE33FEEDF2
:1002260033FDEC33FCEB33FB994002FB0FD8E9EBD3
:10023600300105F8D0E0C448B201C0E00AEC4D4EEA
:100246004F78207B0070C2EAB5330040BCC0E01294
:1002560002BBD0F0D0E0200104C4C0E0C4B201C0AB
:10026600F012004AD0F0D5F0EB02009A1207020114
:10027600375301B15801084C01044201B54F01BD85
:0F0286004401BD49011D4301C35501A74601A70E
:100295004501A747036350010C2D01102E01332B97
:1002A500011423013120034C2A00CC480000012B06
:1002B5003F3F3F00790AA2D5200314300509B91044
:1002C500020404B9080104A2D52006025001042045
:1002D50002689202B532005034C0E07F2030031925
:1002E5007F30A20272067205500F120312C202C2BB
:1002F50006C205C2087F30800F300503E9C0E01251
:100305000061300503D0E0F9D0E0B532CC300517F7
:100315007F30B9100C1200617F583004077F788058
:1003250003B908031200613002057F2D0200617FC9
:10033500202008F87F2B2006F322920280CF286E1A
:10034500756C6C2900D2011200263001F8C20178C3
:100355003230D50108F60200CC2D50434958120021
:10036500262403B405004001E490035E9312005275
:0D037500743A120052D2037532040201B135
:100734000204C2E493A3F8E493A34003F68001F215
:1007440008DFF48029E493A3F85407240CC8C333C6
:10075400C4540F4420C8834004F456800146F6DF95
:10076400E4800B010204081020408090094DE47ECF
:10077400019360BCA3FF543F30E509541FFEE4938A
:10078400A360010ECF54C025E060A840B8E493A351
:10079400FAE493A3F8E493A3C8C582C8CAC583CA7C
:1007A400F0A3C8C582C8CAC583CADFE9DEE780BE34
:010965000091
:10069A00BB010689828A83E0225002E722BBFE025E
:0906AA00E32289828A83E4932291
:1006B300BB010CE58229F582E5833AF583E02250FC
:1006C30006E92582F8E622BBFE06E92582F8E22246
:0D06D300E58229F582E5833AF583E4932260
:1006E000BB010689828A83F0225002F722BBFE01F9
:0206F000F322F3
:1006F200FAE6FB0808E6F925F0F618E6CA3AF62209
:10070200D083D082F8E4937012740193700DA3A386
:1007120093F8740193F5828883E47374029368609A
:06072200EFA3A3A380DF9A
:00000001FF
