:020003000BC32D
:020005000A628D
:020007000CFCEF
:020009000CF3F6
:100BC300120C4F120AB012059D7F0112018B7F0296
:0D0BD30012018B7F0312018BE4FF0202145C
:100A620020A3107D017F0212029D20A30312065BC8
:100A720030A3FD20A4107D017F0212029D20A40359
:100A820012094630A4FD20A5107D017F0212029DAD
:100A920020A503120A0930A5FD20A6C47D017F020C
:0E0AA20012029D20A60312071620A6B480FBA8
:020CFC0080FE78
:090CF300E490018FF0A3F080FEF3
:03000B00020013DD
:10000E00C2AF80FE3212001285D00B75D008FAC234
:10001E008CE58A24F7F58AE58C34D8F58CD28CECF5
:10002E002417F8E6BC030274FFC39581B414004094
:10003E00CF7904780E16E608700BC2AFE630E103F6
:10004E004418F6D2AF08D9EDEA8BD0300003D201B6
:10005E0022D50DFAC0E0C0D0C0F0C083C082C0006F
:10006E00C001C002C003C004C005C006C007E50C35
:10007E0023240FF87440C2AF46F6D2AFD200E50C7F
:10008E00FF23240FF80F0808EFB50C0610010343E9
:10009E008701BF04047F00780FE630E4E800E50C2A
:1000AE00C39F5020050C7416250CF8E6FDA681089A
:1000BE00E6AE0CBE030274FFCDF8E86D60E008E614
:1000CE00C0E080F6E50CD39F4027E50C2417F8E638
:1000DE00AE0CBE030274FFFD18E6CDF8E5816D602F
:1000EE0006D0E0F61880F5E50C2416C8F6150C803F
:1000FE00D3750D05E50C23240FF87F04C2AFE6106F
:02010E00E61EEB
:1001100030E00310E20C7F0030E10730E3047F0899
:1001200054F4C2E7C6D2AF54804207C20022F6D2CE
:10013000AFD007D006D005D004D003D002D001D074
:1001400000D082D083D0F0D0D0D0E0C20022781688
:10015000A68174036006FF0876FFDFFB7F04E47866
:100160000EF608F608DFFA780F7630900003740177
:1001700093C0E0E493C0E0750D05438901758AF0F2
:0B018000758CD8D28CD2AFD2A922031C
:100B84000001000200040008001000200040008062
:100B94000100020004000800100020004000800052
:100CD400C2C8D2C9D2CAE4F5C0E5C020E7FBC2CA83
:010CE40022ED
:0B0B1A00900194E0900191FFE02FFF9C
:100B2500120CD4C2C8C2C9D2CA8FC07F057E0012BA
:0B0B35000C34C2CA7F057E00020C34A5
:100C1900120CD4D2C8C2C9D2CA8FC07F057E0012B5
:0B0C29000C34C2CA7F057E00020C34B0
:100AB000C2C9D2CC7F0A7E00120BFD7F30120B25FB
:100AC0007F057E00120C347F0C120B257F057E0003
:100AD000120C347F01120B257F057E00120C347F2F
:0B0AE00006120B257F057E00020C347F
:0808CB00900198EEF0A3EFF09C
:1008D3007F34120B25E490019AF0E490019BF09091
:1008E300019BE0FFC394205044EF2480FF120B25AB
:1008F30090019AE070047F8080027F88120B25E4C8
:1009030090019CF0900198E475F001120B0485F0BE
:1009130082F583E493FF120C1990019CE004F0E04C
:10092300C3941040DF90019BE004F080B290019AE1
:10093300E004F0E0C3940240A17F36120B257F3020
:03094300020B257F
:0B09A90090018BEBF0A3EAF0A3E9F053
:1009B400EF70047F808016EFB401047F90800EEF07
:1009C400B402047F888006EFB403027F98EF2DFF02
:1009D400120B2590018BE0FBA3E0FAA3E0F9120AC5
:1009E400EBD39400401E90018BA3E475F001120B2D
:1009F40004A9F0FA120AEBFF120C197F057E00120B
:040A04000C3480CF5F
:010A080022CB
:100BE000120CD475C0FFD2C8D2C9D2CA000000000E
:0C0BF0000000000000000000AFC0C2CAFE
:010BFC0022D6
:0D049600900192EDF0A3EBF0900191EFF0DA
:1004A300C39480400302059CA3E0FDC39440400332
:1004B30002059C900193E05401F0900191E0FF54F8
:1004C3000FFEC3740F9E900195F0EFC4540F90017B
:1004D30091F0EDC3942090019450057480F0800353
:1004E3007488F0900192E0541FF0C2AF7F36120B74
:1004F30025900192E02480FF120B25120B1A120B98
:10050300E0900196E4F0A3EFF0120BE0EF7F00FE22
:10051300900196F0FCA3EFF0FD120BE0ECFE9001CE
:1005230096EEF0A3EFF0D2AF900193E0900195B473
:10053300011FE025E02484F582E4340BF583E49382
:10054300FE740193FF900196E04EF0A3E04FF0801C
:1005530021E025E02484F582E4340BF583E493FE63
:10056300740193F4FFEEF4FE900196E05EF0A3E0D5
:100573005FF0C2AF900192E02480FF120B25120BB3
:100583001A900196E0FF120C19900196A3E0FF1256
:090593000C197F30120B25D2AFC8
:01059C00223C
:10084D00EF20E007E49001A0F080069001A074FF76
:10085D00F07F36120B25E490019FF090019FE0C3CD
:10086D0094095055E490019EF0E490019DF0C2AFC3
:10087D0090019EE02480FF120B2590019DE02480C5
:10088D0090019F120B219001A0E0FF120C19900115
:10089D00A0E0FF120C19D2AF90019DE004F0E0C36F
:1008AD00940840CA90019EE004F0E0C3942040B942
:0E08BD0090019FE02408F080A27F30020B25FE
:100C9800D3EF9400EE9400400A000000EF1F70F0BC
:040CA8001E80ED229B
:100BFD00D3EF9400EE940040120000007D0B7CBEFC
:0B0C0D00DCFEDDFCEF1F70E81E80E540
:010C180022B9
:100C8200D3EF9400EE9400400C007D19DDFEEF1FBF
:050C920070EE1E80EB76
:010C9700223A
:100C6900D3EF9400EE9400400F7D6C7C91DCFEDDA7
:080C7900FCEF1F70EB1E80E888
:010C81002250
:100C3400D3EF9400EE9400401100007D027C0FDCA1
:0A0C4400FEDDFCEF1F70E91E80E6E4
:010C4E002283
:100BA400D3EF9400EE9400401500007D057C347B67
:0E0BB400C3DBFEDCFCDDFAEF1F70E51E80E205
:010BC2002210
:100C4F00E4F593F594F591F592F595F596F5B1F5E3
:0A0C5F00B2F5B3F5B4F5C9F5CA22E9
:100CC000B4CBB9A6C4DCC9D0CEB4CAB5CFD6212125
:040CD000003E3E00A4
:1002FC00617C0004001300C9E8D6C3B1A8BEAFBD31
:10030C00E7CFDE00000000001300C9E8D6C3B1A897
:10031C00BEAFD1D3CAB100000000001300C9E8D6AB
:10032C00C3CAB1D6D3CAB1BCE400000000001300AC
:10033C00C9E8D6C3C3DCC2EBBFAAB9D80000000021
:10034C00000600CFB5CDB3B0E6B1BE000000000092
:10035C00000000001300CDCBB3F6B2CBB5A5000066
:10036C000000000000000113032A2A2A2AD3B2BC81
:10037C00FE2A2A2A2A000000000113034753444393
:10038C005F56312E35000000000000000113032AD7
:10039C002A2A2AC8EDBCFE2A2A2A2A0000000001BB
:1003AC0013034755493A000000000000000000000C
:1003BC000000011303576F726D5F56302E393500F4
:1003CC00000000000001130350726F6772616D3AF8
:1003DC000000000000000000011303475344435F7A
:1003EC0050726F6772616D0000000001130356318B
:1003FC002E362E310000000000000000000001131A
:10040C00032A2A2A2AB7FECEF12A2A2A2A00000019
:10041C000001130320544350D6D5B6CBC9E8B1B86C
:10042C0000000000011303BFCDB7FEB5E7BBB0A3BE
:10043C00BA0000000000000113032020202020201F
:10044C0020202020000000000000010000B7B5BBF8
:10045C00D8000000000000000000000000000000B8
:10046C000000000000000000000000000000000080
:10047C0046018000050606120D41000100410003F3
:09048C00014100020041000000E2
:100B40007F021FEF75F003A42480F582E43401F5E1
:100B500083E0FE900002E0B506037F0122EF70E221
:010B6000FF95
:010B61002271
:100B62007F021FEF75F003A42481F582E43401F5BE
:100B720083E0FE900002E0B506037F0122EF70E2FF
:010B8200FF73
:010B8300224F
:10065B00120B40EF70030206F0900002E075F013EE
:10066B00A42404F582E5F03400F583E0FF75F00374
:10067B00A42482F582E43401F583E0C39404401E84
:10068B00EF75F003A42481F582E43401F583E0FED9
:10069B0024FD900001F0A3EEF0A374048068900099
:1006AB0002E075F013A42404F582E5F03400F58321
:1006BB00E075F003A42481F582E43401F583E09026
:1006CB000002F075F013A42404F582E5F03400F574
:1006DB0083E075F003A42482F582E43401F583E012
:1006EB009000038021900003E0B4010F900001E023
:1006FB0014F0A3E014F0A37401800B900003E0143A
:0B070B00F0900002E014F012059D22A7
:100A0900120B62EF602C900002E075F013A424042D
:100A1900F582E5F03400F583E075F003A42480F550
:100A290082E43401F583E0900001F0A3F0A374019E
:100A39008022900003E064046011900002E004F059
:100A4900A3E004F0E0FF120CE5800A900001E00445
:090A5900F0A3E004F012059D2257
:100CAC00E4900001F090000304F0E4900002F09056
:040CBC000000F02222
:010CFE0022D3
:10094600900002E06413605AE0900000F075F01326
:10095600A42405F582E5F03400F583E0900002F06A
:100966006413600EE0900001F09000037401F00241
:10097600059D7F30120B257F01120B25900000E0AC
:1009860075F013A42407F9740035F0FA7B017D0194
:10099600E4FF1209A97BFF7A0C79C0E4FD7F0212FD
:0309A60009A9227A
:10071600900002E0FF6413601175F013EFA4240645
:10072600F582E5F03400F5838003900000E0900048
:1007360002F0900002E0FF75F013A42404F582E5B0
:10074600F03400F583E0FE75F003A42482F582E41C
:100756003401F583E0C394044038EE75F003A42415
:1007660081F582E43401F583E0FE24FDFDEFD39D9F
:100776004011900001EDF0EE9FFFC374049F9000BE
:10078600038033900002E0900001F09000037401B2
:100796008024900002E075F013A42404F582E5F0AD
:1007A6003400F583E075F003A42480F582E4340177
:0B07B600F583E0900001F012059D2289
:10059D00900002E075F013A42404F582E5F0340018
:1005AD00F583E075F003A42482F582E43401F5832C
:1005BD00E090018AF07F30120B257F01120B259000
:1005CD000003E0FF120CE5900001E075F013A42488
:1005DD0007F9740035F0FA7B017D01E4FF1209A9DA
:1005ED0090018AE014F0E0605D900001E075F01379
:1005FD00A4241AF9740035F0FA7B017D017F0112F4
:10060D0009A990018AE014F0E0603B900001E075CB
:10061D00F013A4242DF9740035F0FA7B017D017FD0
:10062D00021209A990018AE014F0E060199000010E
:10063D00E075F013A42440F9740035F0FA7B017DC8
:0E064D00017F031209A9900003E0FF020CE5F3
:0E0CE500EF14FF7BFF7A0C79D1E4FD0209A920
:10018B00EFD3940340037FFF22740F2F2FF8E62049
:10019B00E5F4C2AFE64430F6D2AFAE0CEEC39F50DF
:1001AB00210E74162EF8E6F908E618BE030274FF4A
:1001BB00FDED69600909E71919F7090980F31616AE
:1001CB0080DAEED39F400405810581EED39F402258
:1001DB0074162EF808E6F9EEB50C02A9811806067E
:1001EB00E6FDED6960091919E70909F71980F31E96
:1001FB0080D9EF2416F8E604F8EF2F049000039350
:09020B00F608EF2F93F67F0022A4
:10021400EFD3940340037FFF22EF23240FF8E6304B
:10022400E5F4C2AFE6548CF6D2AFE50CB5070A7418
:10023400162FF8E6F58102008A502E74172FF8E67F
:10024400BF030274FFFD18E6F974162FF8FBE6FCF1
:10025400E96C6008A805E7F61D1980F4A803A60553
:100264001FE50CB507E37F002274172FF8E6FD188D
:1002740086010F74162FF8A601088604E50CB5074D
:1002840002AC81ED6C60080D09A805E6F780F4E581
:090294000CB507DE89817F002210
:10029D008FF0E4FFFEE50C23240EF8C2A930F70D14
:1002AD007F08E6600B2DF660325030800730F10686
:1002BD00EDF660277E020830F010C2AFE610E7259C
:1002CD000E30E20CD2AF7F048014C2AFE610E715FA
:1002DD0054EC4EF6D2AFD2A902008A7F0808EF4443
:0F02ED0083F4C2AF56C6D2AFD2A954804FFF22BE
:030000000207C133
:0C07C100787FE4F6D8FD7581200208085E
:100AEB00BB010689828A83E0225002E722BBFE0209
:090AFB00E32289828A83E493223C
:100B0400A3F8E0C5F025F0F0E582158270021583A4
:060B1400E0C838F0E82201
:1007CD0002014EE493A3F8E493A34003F68001F2F3
:1007DD0008DFF48029E493A3F85407240CC8C3332D
:1007ED00C4540F4420C8834004F456800146F6DFFC
:1007FD00E4800B01020408102040809002FCE47E8E
:10080D00019360BCA3FF543F30E509541FFEE493F0
:10081D00A360010ECF54C025E060A840B8E493A3B7
:10082D00FAE493A3F8E493A3C8C582C8CAC583CAE2
:10083D00F0A3C8C582C8CAC583CADFE9DEE780BE9A
:010495000066
:00000001FF
