:02000300064DA8
:02000500058D67
:02000700068071
:0200090003EA08
:1005D10031204F4646210032204F4646210020203F
:1005E1002020202020202020202020202020003119
:1005F100204F4E2100D7B4CCAC312100D7B4CCACC4
:10060100322100D7B4CCAC332100D7B4CCAC3421E7
:0106110000E8
:10064D007F0112018B7F0212018B7F0312018B122E
:10065D00076F1206127BFF7A0579D1E4FDFF1205B3
:10066D003E7BFF7A0579D8E4FD7F0112053EE4FF5C
:03067D0002021462
:10058D0020A32A7D017F021202C420A3057F02123F
:10059D00029D30A3FD7BFF7A0579DFE4FDFF120597
:1005AD003E7BFF7A0579D1E4FDFF12053E20A4D0F4
:1005BD007D017F021202C420A4057F0312029D203B
:0405CD00A4BE80FB4D
:10068000E4FD7F011202C47BFF7A0579DFE4FDFF00
:1006900012053E7BFF7A0579F0E4FDFF12053E80EE
:0106A000DF7A
:1003EA00E4FD7F011202C47590FE7BFF7A0579DF76
:1003FA00E4FD7F0112053E7BFF7A0579F6E4FD7F75
:10040A000112053EE4FD7F011202C47590FD7BFFD7
:10041A007A0579DFE4FD7F0112053E7BFF7A0579D3
:10042A00FDE4FD7F0112053EE4FD7F011202C47561
:10043A0090FB7BFF7A0579DFE4FD7F0112053E7BA5
:10044A00FF7A067904E4FD7F0112053EE4FD7F018F
:10045A001202C47590F77BFF7A0579DFE4FD7F010C
:10046A0012053E7BFF7A06790BE4FD7F0112053EF9
:03047A000203EA90
:03000B00020013DD
:10000E00C2AF80FE3212001285D00B75D008FAC234
:10001E008CE58A24F7F58AE58C34D8F58CD28CECF5
:10002E002435F8E6BC030274FFC39581B414004076
:10003E00CF7904782C16E608700BC2AFE630E103D8
:10004E004418F6D2AF08D9EDEA8BD0300003D201B6
:10005E0022D50DFAC0E0C0D0C0F0C083C082C0006F
:10006E00C001C002C003C004C005C006C007E50C35
:10007E0023242DF87440C2AF46F6D2AFD200E50C61
:10008E00FF23242DF80F0808EFB50C0610010343CB
:10009E008701BF04047F00782DE630E4E800E50C0C
:1000AE00C39F5020050C7434250CF8E6FDA681087C
:1000BE00E6AE0CBE030274FFCDF8E86D60E008E614
:1000CE00C0E080F6E50CD39F4027E50C2435F8E61A
:1000DE00AE0CBE030274FFFD18E6CDF8E5816D602F
:1000EE0006D0E0F61880F5E50C2434C8F6150C8021
:1000FE00D3750D05E50C23242DF87F04C2AFE61051
:02010E00E61EEB
:1001100030E00310E20C7F0030E10730E3047F0899
:1001200054F4C2E7C6D2AF54804207C20022F6D2CE
:10013000AFD007D006D005D004D003D002D001D074
:1001400000D082D083D0F0D0D0D0E0C2002278346A
:10015000A68174036006FF0876FFDFFB7F04E47866
:100160002CF608F608DFFA782D763090000374013B
:1001700093C0E0E493C0E0750D05438901758AF0F2
:0B018000758CD8D28CD2AFD2A922031C
:1006C100000100020004000800100020004000802A
:1006D100010002000400080010002000400080001A
:1007E500C2C8D2C9D2CAE4F5C0E5C020E7FBC2CA77
:0107F50022E1
:0506A100E5222480FFAA
:1006A6001207E5C2C8C2C9D2CA8FC07F057E001232
:0B06B6000754C2CA7F057E00020754F3
:100739001207E5D2C8C2C9D2CA8FC07F057E00128E
:0B0749000754C2CA7F057E000207545F
:10061200C2C9D2CC7F0A7E0012071D7F301206A605
:100622007F057E001207547F0C1206A67F057E000E
:100632001207547F011206A67F057E001207547F1F
:0B064200061206A67F057E000207548A
:04047D008E1A8F1B29
:100481007F341206A6E4F51CE4F51DE51D2480FF6A
:100491001206A6E51C70047F8080027F881206A6E2
:1004A100E4F51E051BE51BAE1A7002051A14F58250
:1004B1008E83E493FF120739051EE51EC394104095
:1004C100E2051DE51DC3942040C1051CE51CC39434
:0D04D1000240B57F361206A67F300206A657
:06053E008B178A188919D1
:10054400EF70047F808013BF01047F90800CBF0292
:10055400047F888005BF03027F98EF2DFF1206A653
:10056400AB17AA18A9191207A2D39400401A0519A7
:10057400E5197002051814F91207A2FF1207397F52
:08058400057E0012075480D827
:01058C00224C
:100700001207E575C0FFD2C8D2C9D2CA00000000E6
:0C0710000000000000000000AFC0C2CAE2
:01071C0022BA
:060323008F218D228B23C7
:10032900E521C3948040030203E9E522C3944040D8
:10033900030203E9532301E521540FFFC3740F9FFF
:10034900F525E521C4540FF521E522C39420500574
:10035900752480800375248853221FC2AF7F36120B
:1003690006A61206A1E5212524FF1206A6120700FA
:100379007526008F27120700EF752700F52612074B
:1003890000EF4227D2AFE523B40118E52525E02483
:10039900C1F582E43406F583E4934226740193425D
:1003A90027801EE52525E024C1F582E43406F5837E
:1003B900E493FE740193F4FFEEF4FEEF5227EE523C
:1003C90026C2AF1206A1E5212524FF1206A6E526BD
:1003D900FF120739AF271207397F301206A6D2AFAD
:0103E90022F1
:1004DE00EF20E005E4F52B8003752BFF7F36120627
:1004EE00A6E4F52AE52AC394095040E4F529E4F57B
:1004FE0028C2AFE5292480FF1206A6E52824802510
:10050E002AFF1206A6AF2B120739AF2B120739D2CC
:10051E00AF0528E528C3940840D70529E529C394DB
:10052E002040CB7408252AF52A80B97F300206A612
:1007D100D3EF9400EE9400400A000000EF1F70F088
:0407E1001E80ED2267
:10071D00D3EF9400EE940040120000007D0B7CBEE0
:0B072D00DCFEDDFCEF1F70E81E80E525
:01073800229E
:1007BB00D3EF9400EE9400400C007D19DDFEEF1F8B
:0507CB0070EE1E80EB42
:0107D0002206
:10078900D3EF9400EE9400400F7D6C7C91DCFEDD8C
:08079900FCEF1F70EB1E80E86D
:0107A1002235
:10075400D3EF9400EE9400401100007D027C0FDC86
:0A076400FEDDFCEF1F70E91E80E6C9
:01076E002268
:1006E100D3EF9400EE9400401500007D057C347B2F
:0E06F100C3DBFEDCFCDDFAEF1F70E51E80E2CD
:0106FF0022D8
:10076F00E4F593F594F591F592F595F596F5B1F5C8
:0A077F00B2F5B3F5B4F5C9F5CA22CE
:10018B00EFD3940340037FFF22742D2F2FF8E6202B
:10019B00E5F4C2AFE64430F6D2AFAE0CEEC39F50DF
:1001AB00210E74342EF8E6F908E618BE030274FF2C
:1001BB00FDED69600909E71919F7090980F31616AE
:1001CB0080DAEED39F400405810581EED39F402258
:1001DB0074342EF808E6F9EEB50C02A98118060660
:1001EB00E6FDED6960091919E70909F71980F31E96
:1001FB0080D9EF2434F8E604F8EF2F049000039332
:09020B00F608EF2F93F67F0022A4
:10021400EFD3940340037FFF22EF23242DF8E6302D
:10022400E5F4C2AFE6548CF6D2AFE50CB5070A7418
:10023400342FF8E6F58102008A502E74352FF8E643
:10024400BF030274FFFD18E6F974342FF8FBE6FCD3
:10025400E96C6008A805E7F61D1980F4A803A60553
:100264001FE50CB507E37F002274352FF8E6FD186F
:1002740086010F74342FF8A601088604E50CB5072F
:1002840002AC81ED6C60080D09A805E6F780F4E581
:090294000CB507DE89817F002210
:10029D00EFD3940340037FFF22EF23242DF8C2AF49
:1002AD00E630E50530E002D2E4D2E2C6D2AF7F00FF
:0702BD0030E2010F02005CBA
:1002C4008FF0E4FFFEE50C23242CF8C2A930F70DCF
:1002D4007F08E6600B2DF660325030800730F1065F
:1002E400EDF660277E020830F010C2AFE610E72575
:1002F4000E30E20CD2AF7F048014C2AFE610E715D3
:1003040054EC4EF6D2AFD2A902008A7F0808EF441B
:0F03140083F4C2AF56C6D2AFD2A954804FFF2296
:030000000207F6FE
:0C07F600787FE4F6D8FD75813702014ED3
:1007A200BB010689828A83E0225002E722BBFE0255
:0907B200E32289828A83E4932288
:00000001FF
