:10137E00B6E0B6AFEBDEB5E7D7D3CBF800256C758C
:10138E0000BFAACBF8002020202000621C4E3D6238
:10139E0022C43DAC5EED16AC675A76526D113D52CD
:0713AE006D533DAC6447B62E
:0B154E0046002CFFFFFFFFFFFFC1095C
:10058100E4900033F0A3F01215051213437BFF7AB8
:1005910013797EE4FD7F031211CB7B017A00791878
:1005A1007F5212104A900032EFF0601012127D90CB
:1005B1000032EFF01215B912158980DE7B017A0045
:1005C1007918120C6B900032EFF070CE7B017A003B
:1005D1007918120DDC900032EFF0600280BC9000BF
:1005E1001BE0FFE4FCFDFE900014120826900014AD
:1005F100E0FCA3E0FDA3E0FEA3E0FF7808120803FE
:10060100900014120826900014E0F8A3E0F9A3E08A
:10061100FAA3E0FB90001AE0FFEB4FFFEAFEE9FDD1
:10062100E8FC900014120826900014E0FCA3E0FD01
:10063100A3E0FEA3E0FF780812080390001412085B
:1006410026900014E0F8A3E0F9A3E0FAA3E0FB9000
:100651000019E0FFEB4FFFEAFEE9FDE8FC90001412
:10066100120826900014E0FCA3E0FDA3E0FEA3E045
:10067100FF7808120803900014120826900014E075
:10068100F8A3E0F9A3E0FAA3E0FBA3E0FFEB4FFF3F
:10069100EAFEE9FDE8FC9000141208269000387487
:1006A100FFF0A37413F0A3748BF0900014E0FCA38B
:1006B100E0FDA3E0FEA3E0FF90003B1208267B01D2
:1006C1007A0079001200687B017A007900E4FDFF6D
:1006D1001211CBE4900034F0900034E0FFC3940792
:1006E100400302059BEF25E025E02499F582E434DF
:1006F10013F583120816900014E0F8A3E0F9A3E0C3
:10070100FAA3E0FBC31207ED702B7BFF7A13798FFD
:10071100FD7F011211CBC2B67FDC7E051214B3D26C
:10072100B67FD07E071214B37BFF7A137994E4FD70
:0D0731007F011211CB900034E004F0809B9A
:1014390000010002000400080010002000400080A4
:101449000100020004000800100020004000800094
:10159B00C2C8D2C9D2CAE4F5C0E5C020E7FBC2CAB3
:0115AB00221D
:0B1413009000EFE09000ECFFE02FFFE6
:10141E0012159BC2C8C2C9D2CA8FC07F057E0012E8
:0B142E0014EAC2CA7F057E000214EA27
:1014CF0012159BD2C8C2C9D2CA8FC07F057E001227
:0B14DF0014EAC2CA7F057E000214EA76
:10134300C2C9D2CC7F0A7E001214B37F3012141E9E
:101353007F057E001214EA7F0C12141E7F057E00A7
:101363001214EA7F0112141E7F057E001214EA7F15
:0B1373000612141E7F057E000214EA23
:081150009000F3EEF0A3EFF0B4
:101158007F3412141EE49000F5F0E49000F6F0904D
:1011680000F6E0FFC394205044EF2480FF12141EC1
:101178009000F5E070047F8080027F8812141EE4DE
:101188009000F7F09000F3E475F0011207B885F0CD
:1011980082F583E493FF1214CF9000F7E004F0E0A7
:1011A800C3941040DF9000F6E004F080B29000F5A0
:1011B800E004F0E0C3940240A17F3612141E7F3091
:0311C80002141EF0
:0B11CB00900035EBF0A3EAF0A3E9F080
:1011D600EF70047F808016EFB401047F90800EEFDD
:1011E600B402047F888006EFB403027F98EF2DFFD8
:1011F60012141E900035E0FBA3E0FAA3E0F91207F3
:101206003ED39400401E900035A3E475F00112070A
:10121600B8A9F0FA12073EFF1214CF7F057E00121E
:0412260014EA80CF77
:01122A0022A1
:1014960012159B75C0FFD2C8D2C9D2CA000000007F
:0C14A6000000000000000000AFC0C2CA3F
:0114B2002217
:0D09AA009000EDEDF0A3EBF09000ECEFF00D
:1009B700C394804003020AB0A3E0FDC39440400300
:1009C700020AB09000EEE05401F09000ECE0FF5412
:1009D7000FFEC3740F9E9000F0F0EFC4540F900009
:1009E700ECF0EDC394209000EF50057480F0800385
:1009F7007488F09000EDE0541FF0C2AF7F361214F8
:100A07001E9000EDE02480FF12141E12141312141E
:100A1700969000F1E4F0A3EFF0121496EF7F00FE3A
:100A27009000F1F0FCA3EFF0FD121496ECFE90009D
:100A3700F1EEF0A3EFF0D2AF9000EEE09000F0B44B
:100A4700011FE025E02439F582E43414F583E493AB
:100A5700FE740193FF9000F1E04EF0A3E04FF080A9
:100A670021E025E02439F582E43414F583E493FE8C
:100A7700740193F4FFEEF4FE9000F1E05EF0A3E062
:100A87005FF0C2AF9000EDE02480FF12141E121435
:100A9700139000F1E0FF1214CF9000F1A3E0FF12D2
:090AA70014CF7F3012141ED2AFEF
:010AB0002223
:1010D200EF20E007E49000FBF080069000FB74FF35
:1010E200F07F3612141EE49000FAF09000FAE0C38A
:1010F20094095055E49000F9F0E49000F8F0C2AF82
:101102009000F9E02480FF12141E9000F8E0248081
:101112009000FA12141A9000FBE0FF1214CF900014
:10112200FBE0FF1214CFD2AF9000F8E004F0E0C36E
:10113200940840CA9000F9E004F0E0C3942040B95A
:0E1142009000FAE02408F080A27F3002141E14
:10156200D3EF9400EE9400400A000000EF1F70F0E9
:041572001E80ED22C8
:1014B300D3EF9400EE940040120000007D0B7CBE3D
:0B14C300DCFEDDFCEF1F70E81E80E582
:0114CE0022FB
:10153800D3EF9400EE9400400C007D19DDFEEF1F00
:0515480070EE1E80EBB7
:01154D00227B
:10151F00D3EF9400EE9400400F7D6C7C91DCFEDDE8
:08152F00FCEF1F70EB1E80E8C9
:011537002291
:1014EA00D3EF9400EE9400401100007D027C0FDCE3
:0A14FA00FEDDFCEF1F70E91E80E626
:0115040022C4
:10145900D3EF9400EE9400401500007D057C347BA9
:0E146900C3DBFEDCFCDDFAEF1F70E51E80E247
:011477002252
:10150500E4F593F594F591F592F595F596F5B1F524
:0A151500B2F5B3F5B4F5C9F5CA222A
:081559004100FE004100FD000D
:1013B50075A0F0E5A064F060089000FEE004F08000
:1013C50005E49000FEF09000FEE0640370037F01E9
:1013D5002275A00F300A0DE5A0B40F08C20A9000CF
:0613E500FDE0FF227FFF86
:0113EB0022DF
:10147800D3EF9400EE940040147D6E7C00ED1D7057
:0D148800011CED4C70F7EF1F70E61E80E3B5
:011495002234
:0D104A00900035EFF0A3EBF0A3EAF0A3E96E
:101057001215767D077F0D1213087D037F14121575
:10106700AC900035E090003BF09000527401F0A383
:10107700F0A37400F0A3743BF0A37401F0A3740011
:10108700F0A37439F07A00793B12038AEF70399034
:101097000039E07004A3E06410702D90003BE0FE7F
:1010A700900036E0FBA3E0FAA3E0F9EE1207849084
:1010B700003CE0FE900036E0FBA3E0FAA3E0F990E5
:0A10C7000001EE12079680027FFE82
:0110D10022FC
:0B0C6B00900035EBF0A3EAF0A3E9F0E5
:100C7600E4900039121576E4FD7F0D1213087D808D
:100C86007F0E12157B90003C7493F0A37420F090B5
:100C960000527402F07B01A314F0A37400F0A37455
:100CA6003CF0A3EBF0A37400F0A3743AF07A007959
:100CB6003C7F0C12038E900038EFF07058FC743CA9
:100CC6002CF582E43400F583E0FE900035E0FBA3CA
:100CD600E0FAA3E0F9AF048F82758300EE1207965F
:100CE600900039E0FE743C2FF582E43400F583E091
:100CF600FDEE6D900039F00CECB404C2743C2CF59A
:100D060082E43400F583E0FF900039E06F600690DE
:100D1600003874FEF07D807F0E1215AC900038E02E
:010D2600FFCD
:010D270022A9
:0B0DDC00900035EBF0A3EAF0A3E9F073
:100DE70090003A7493F0A37470F0E4900040F0FC24
:100DF700900035E0FBA3E0FAA3E0F9AF048F82751A
:100E07008300120757FE743C2FF582E43400F58304
:100E1700EEF0900040E0FE8F82758300120757FDC9
:100E2700EE6D900040F00CECB404C59000507401D6
:100E3700F0A37400F0A37441F07B017A00793A7D46
:100E470007120D3F1215779000527409F0A3740131
:100E5700F0A37400F0A3743AF0A37401F0A3740034
:100E6700F0A37438F07B017A00793A7F0C12038E75
:100E7700EF700F900038E07004A3E064187003FF70
:040E870080027FFE68
:010E8B002244
:0B0E8C00900061EBF0A3EAF0A3E9F096
:100E970090006AEFF0A3EDF0E4FF900061E0FBA3A0
:100EA700E0FAA3E0F98F82758300120757FE746C8E
:100EB7002FF582E43400F583EEF00FEFB406DBE4A0
:100EC700FF900064E0FBA3E0FAA3E0F98F8275834B
:100ED70000120757FE74722FF582E43400F583EE93
:100EE700F00FEFB406DB900052740CF0A37401F01E
:100EF700A37400F0A3746AF0A37401F0A37400F064
:100F0700A37468F07B017A00796A7F0E12038E90D2
:100F17000067EFF070097F081212C7EF20E3069011
:0A0F2700006774FEF0900067E0FF21
:010F3100229D
:0B0F3200900094EBF0A3EAF0A3E9F0BC
:100F3D009000997430F0A3EFF09000507401F0A37D
:100F4D007400F0A3749BF07A007999120D3B900018
:100F5D00527404F0A37401F0A37400F0A37499F01B
:100F6D00A37401F0A37400F0A37497F07B017A00D1
:100F7D0079997F0C12038EEF7034900097E0700416
:100F8D00A3E064907028FE74992EF582E43400F588
:100F9D0083E0FD900094E0FBA3E0FAA3E0F98E82DC
:100FAD00758300ED1207960EEEB410DB80027FFE06
:010FBD002211
:0B0AB1009000ABEBF0A3EAF0A3E9F02B
:100ABC009000B074A0F0A3EFF09000507401F0A37C
:100ACC007400F0A374B2F07B017A0079B07D02124D
:100ADC000D3F9000527404F0A37401F0A37400F065
:100AEC00A374B0F0A37401F0A37400F0A374AEF07F
:100AFC007B017A0079B07F0C12038EEF7016900098
:100B0C00AEE07004A3E06404700A9000B0E0540FEF
:100B1C00640A60027FFEEF6003020BABFE9000AB39
:100B2C00E0FBA3E0FAA3E0F98E827583001207576D
:100B3C00FD74B02EF582E43400F583EDF00EEEB4C6
:100B4C0010DB9000507401F0A37400F0A374C0F09B
:100B5C007B017A0079B07D10120D3F900052741217
:100B6C00F0A37401F0A37400F0A374B0F0A37401AB
:100B7C00F0A37400F0A374AEF07B017A0079B07F1F
:100B8C000C12038EEF70169000AEE07004A3E064BC
:0F0B9C0004700A9000B0E0540F640A60027FFEFC
:010BAB002227
:100BAC0090007DEBF0A3EAF0A3E9F090007CEDF06F
:100BBC00900082EFF0A3ED120D28120368EF70166F
:100BCC00900080E07004A3E06404700A900082E05E
:100BDC00540F640A60027FFEEF7052FE90007DE0BD
:100BEC00FBA3E0FAA3E0F98E82758300120757FD90
:100BFC0074822EF582E43400F583EDF00EEEB41021
:100C0C00DB9000507401F0A37400F0A37486F07BA9
:100C1C00017A0079827D04120D3FE4900080F0A3EC
:100C2C00F0740612036AEF64FE6002E4FFEF702EAC
:100C3C0090008274B0F090007CE0900083120D283C
:100C4C00120368EF7016900080E07004A3E0640457
:0E0C5C00700A900082E0540F640A60027FFE6E
:010C6A002267
:050878009000C2EDF04C
:10087D009000C574C2F0A3EFF09000507401F0A386
:10088D007400F0A374C7F07B017A0079C57D021264
:10089D000D3F9000527404F0A37401F0A37400F0A6
:1008AD00A374C5F0A37401F0A37400F0A374C3F096
:1008BD007B017A0079C57F0C12038EEF70169000C4
:1008CD00C3E07004A3E06404700A9000C5E0540F07
:1008DD00640A60027FFEEF70529000C5F0A3F0A392
:1008ED00F0A3F07B0190005004F0A37400F0A3740A
:1008FD00C9F07A0079C57D04120D3F90005274063F
:10090D00F0A37401F0A37400F0A374C5F0A37401F7
:10091D00F0A37400F0A374C3F07B017A0079C57F56
:10092D000C12038EEF64FE6002E4FFEF60037FFEA6
:10093D00229000C574B0F09000C2E09000C6F09017
:10094D0000507401F0A37400F0A374C7F07B017A1A
:10095D000079C57D02120D3F9000527404F0A3740E
:10096D0001F0A37400F0A374C5F0A37401F0A37497
:10097D0000F0A374C3F07B017A0079C57F0C1203DC
:10098D008EEF70169000C3E07004A3E06404700A4B
:0C099D009000C5E0540F640A60027FFE69
:0109A900222B
:10122B009000DA7450F0E4A3F07B0190005004F0CE
:10123B00A37400F0A374DCF07A0079DA7D02120D4E
:10124B003F9000527404F0A37401F0A37400F0A358
:10125B0074DAF0A37401F0A37400F0A374D8F07BDC
:10126B00017A0079DA7F0C12038E9000D7EFF07FB2
:01127B000072
:01127C00224F
:100D2800F09000507401F0A37400F0A37484F07A7A
:070D38000079827B017D02BE
:0E0D3F0090004CEBF0A3EAF0A3E9F0A3EDF076
:100D4D007D047F0512157B1213047D807F0A121519
:100D5D00ACE4900053F090004FE0FF900053E0FEA4
:100D6D00C39F502190004CE0FBA3E0FAA3E0F98E65
:100D7D0082758300120757FD7F09121308900053E7
:100D8D00E004F080D17D037F0112130890005374AD
:100D9D00FFF07F051212C7900053E014F0E06004DD
:100DAD00EF30E2EE7F221212C7900050E0FBA3E07D
:100DBD00FAA3E0F9EF1207847F211212C7900050B9
:0F0DCD00E0FBA3E0FAA3E0F9900001EF02079624
:10127D00D28200C28200D2827F0A7E001214787D53
:10128D000F7F01121308007D3D7F111213087D1E83
:10129D007F2D121308E4FD7F2C1213087D8D7F2AFC
:1012AD001213087D3E7F2B1213087D407F151213FC
:0412BD00087F002284
:0612C100AC07AB05E4FEE2
:1012C700E4FEC2B4C2B5EF25E0547E4480FF7D083A
:1012D700EF30E703D38001C392B2D2B4EF25E0FF2A
:1012E700C2B4DDEC7D08D2B4EE25E0FEA2B3E43350
:0C12F7004EFEC2B4DDF0D2B5D2B4AF069A
:0113030022C7
:04130400E4FD7F0184
:10130800C2B4C2B5EF25E0547EFF7E08EF30E70394
:10131800D38001C392B2D2B4EF25E0FFC2B4DEECB1
:101328007E08ED30E703D38001C392B2D2B4ED2535
:0A133800E0FDC2B4DEECD2B5D2B481
:011342002288
:0D15AC001212C1AE07AF04EB4EFD02130892
:05157600F07D087F0874
:0E157B001212C1AE07AF04EBF45EFD021308BE
:100368007404900052F0A37401F0A37400F0A37415
:1003780082F0A37401F0A37400F0A37480F07A00F3
:0603880079827B017F0C6D
:10038E0090004FEBF0A3EAF0A3E9F090004EEFF0EF
:10039E0090005974FEF0E4A3F0A3F0EF24F4601083
:1003AE0024FE701690005A7412F0A37410F0800A96
:1003BE0090005A7477F0A37430F090005AE04480A5
:1003CE00FD7F021213087D807F0412157B12130429
:1003DE007D807F0A1215ACE490005DF0A3F09000D2
:1003EE0052E0FF90005DE0FCA3E0FDC39FEC9400A3
:1003FE00502890004FE0FBA3E0FAA3E0F98D828C29
:10040E0083120757FD7F0912130890005EE004F077
:10041E0070CC90005DE004F080C490004EE0FD7F53
:10042E0001121308E0B40C077D807F0D1215AC90FD
:10043E00005D7402F0A37458F07F041212C790008E
:10044E005CEFF090005EE024FFF090005DE034FF82
:10045E00F0E07002A3E0601190005CE0FF20E00984
:10046E0090005BE0FEEF5E60D07D807F0D12157B0D
:10047E0090005DE07002A3E070030205717F06122A
:10048E0012C7EF541B600302056B900059F0A3E0F6
:10049E00FF90005CE05F30E00690005974FFF09032
:1004AE00004EE0640C60030205717F0A1212C790C1
:1004BE00005CEFF07F0C1212C7EF5407FD6026E0D0
:1004CE0024FFFFE434FFFEEF7803C333CE33CED8E0
:1004DE00F97C002DFFEC3EF9900056E0FBA3E0FA0C
:1004EE00A3E0C9801690005CE075F008A4FF9000B0
:1004FE0056E0FBA3E0FAA3E0F9E5F08FF01207CE89
:10050E0090005CE0700204F090005CE0D394124026
:10051E00037412F0E490005DF0A3F090005CE0FF35
:10052E00C390005EE09F90005DE0940050357F091F
:10053E001212C7900053E0FBA3E0FAA3E0F990007B
:10054E005DE0FCA3E0F5828C83EF12079690005ECF
:10055E00E004F070C690005DE004F080BE9000599B
:10056E0074FEF07D807F0C1215AC121304900059AE
:02057E00E0FF9C
:010580002258
:101589007F141212C7EF540370077D037F141215DD
:01159900ACA5
:01159A00222E
:0715B9007D037F1402157B86
:03000000020FBE2E
:0C0FBE00787FE4F6D8FD75812102100553
:10073E00BB010689828A83E0225002E722BBFE02B9
:09074E00E32289828A83E49322EC
:10075700BB010CE58229F582E5833AF583E0225057
:1007670006E92582F8E622BBFE06E92582F8E222A1
:0D077700E58229F582E5833AF583E49322BB
:10078400BB010689828A83F0225002F722BBFE0154
:02079400F3224E
:10079600F8BB010DE58229F582E5833AF583E8F099
:1007A600225006E92582C8F622BBFE05E92582C845
:0207B600F2222D
:1007B800A3F8E0C5F025F0F0E582158270021583F4
:0607C800E0C838F0E82251
:1007CE00BB010A89828A83F0E5F0A3F0225006F776
:0F07DE0009A7F01922BBFE06F3E5F009F3192273
:1007ED00EB9FF5F0EA9E42F0E99D42F0EC6480C883
:0607FD0064809845F02223
:10080300E8600FEFC333FFEE33FEED33FDEC33FC53
:03081300D8F122F7
:10081600E493FC740193FD740293FE740393FF2228
:0C082600ECF0A3EDF0A3EEF0A3EFF02245
:10000300E5082438F582E43400F583E005082290FE
:100013000035300703900038E475F001120832020E
:10002300073E2000E97F2ED2008018EF540F249062
:10003300D43440D4FF30040BEF24BFB41A00500370
:100043002461FFE50960021509050CE50C70020542
:100053000B30070E900035E475F001120832EF0201
:1000630007840213EC7403D2078003E4C207F50884
:10007300900035120849E4F509F50BF50CE5096024
:10008300077F2012004680F5750AFFC201C200C235
:1000930002C203C205C206C208120012FF700D306D
:1000A30007057F00120057AF0CAE0B22B4255FC2C9
:1000B300D5C204120012FF24D0B40A00501A75F0FE
:1000C3000A780930D50508B6FF0106C6A426F6202E
:1000D300D5047002D20380D924CFB41A00EF5004A0
:1000E300C2E5D204020258D20180C6D20080C0D237
:1000F3000280BCD2D580BAD20580B47F20120046DC
:100103002002077401B5090040F1120003FF120039
:1001130046020080D208D2068095120003FB12002B
:1001230003FA120003F94A4B700679297A037BFF1D
:1001330020022EE509602A7E008E82758300120755
:100143005760060EEE650A70F0C2D5EBC0E0EAC058
:10015300E0E9C0E0EE12029FD0E0F9D0E0FAD0E08F
:10016300FB12073EFF60AAEBC0E0EAC0E0E9C0E093
:10017300120046D0E02401F9D0E03400FAD0E0FBCD
:10018300E50A0460DCD50AD980877BFF7A02799B74
:10019300D202809C791080027908C206C2088008C6
:1001A300D2D5790A8004790AC2D5E50A047002F52A
:1001B3000AE4FAFDFEFF120003FC7B082001131280
:1001C3000003FD7B1030000A120003FE120003FF40
:1001D3007B20EC3382D592D55013C3E43000069FC5
:1001E300FFE49EFEE42001039DFDE49CFCE4CBF8C8
:1001F300C201EC700CCFCECDCCE824F8F870F380BC
:1002030017C3EF33FFEE33FEED33FDEC33FCEB337B
:10021300FB994002FB0FD8E9EB300105F8D0E0C4AD
:1002230048B201C0E00AEC4D4E4F78207B0070C20B
:10023300EAB50A0040BCC0E01202A1D0F0D0E02031
:100243000104C4C0E0C4B201C0F012002FD0F0D545
:10025300F0EB020080120852011D5301975800EE83
:100263004C00EA42019B4F01A34401A3490103430C
:0802730001A955018D46018D22
:10027B0045018D4703495000F22D00F62E01192B35
:10028B0000FA2301172003322A00B24800000111A3
:10029B003F3F3F00790AA2D5200314300509B9105E
:1002AB00020404B9080104A2D5200602500104205F
:1002BB0002689202B509005034C0E07F2030031968
:1002CB007F30A20272067205500F1202F8C202C2F0
:1002DB0006C205C2087F30800F300503E9C0E0126B
:1002EB000046300503D0E0F9D0E0B509CC30051756
:1002FB007F30B9100C1200467F583004077F78808E
:10030B0003B908031200463002057F2D0200467F19
:10031B00202008F87F2B2006F322920280CF286E34
:10032B00756C6C2900D2011200033001F8C2017800
:10033B000930D50108F60200B22D5043495812007E
:10034B00032403B405004001E490034493120037E7
:0D035B00743A120037D203750904020197AD
:100FCA00020581E493A3F8E493A34003F68001F2B7
:100FDA0008DFF48029E493A3F85407240CC8C33328
:100FEA00C4540F4420C8834004F456800146F6DFF7
:100FFA00E4800B010204081020408090154EE47E24
:10100A00019360BCA3FF543F30E509541FFEE493EB
:10101A00A360010ECF54C025E060A840B8E493A3B2
:10102A00FAE493A3F8E493A3C8C582C8CAC583CADD
:10103A00F0A3C8C582C8CAC583CADFE9DEE780BE95
:011561000089
:10083200F8E0FBA3A3E0F925F0F0E582158270024F
:070842001583E0FA38F022F3
:09084900EBF0A3EAF0A3E9F022B0
:10085200D083D082F8E4937012740193700DA3A335
:1008620093F8740193F5828883E473740293686049
:06087200EFA3A3A380DF49
:1013EC00EFB40A07740D1213F7740A309811A89908
:1013FC00B8130CC2983098FDA899C298B811F63061
:07140C0099FDC299F5992238
:00000001FF
