:1013DE00B6E0B6AFEBDEB5E7D7D3CBF800256C752C
:1013EE0000BFAACBF8002020202000621C4E3D62D8
:1013FE0022C43DAC5EED16AC675A76526D113D526D
:07140E006D533DAC6447B6CD
:0B15AE0046002CFFFFFFFFFFFFC109FC
:1005DC00E4900033F0A3F01215651213A3438F209F
:1005EC00D2AF7BFF7A1379DEE4FD7F0312122B7BF3
:1005FC00017A0079187F521210AA900032EFF06045
:10060C00101212DD900032EFF01216191215E9805B
:10061C00DE7B017A007918120CCB900032EFF0706F
:10062C00CE7B017A007918120E3C900032EFF0600C
:10063C000280BC90001BE0FFE4FCFDFE9000141255
:10064C000886900014E0FCA3E0FDA3E0FEA3E0FF0D
:10065C007808120863900014120886900014E0F8D1
:10066C00A3E0F9A3E0FAA3E0FB90001AE0FFEB4F44
:10067C00FFEAFEE9FDE8FC900014120886900014D5
:10068C00E0FCA3E0FDA3E0FEA3E0FF780812086302
:10069C00900014120886900014E0F8A3E0F9A3E08F
:1006AC00FAA3E0FB900019E0FFEB4FFFEAFEE9FD37
:1006BC00E8FC900014120886900014E0FCA3E0FD06
:1006CC00A3E0FEA3E0FF7808120863900014120860
:1006DC0086900014E0F8A3E0F9A3E0FAA3E0FBA3F2
:1006EC00E0FFEB4FFFEAFEE9FDE8FC900014120876
:1006FC008690003874FFF0A37413F0A374EBF090A1
:10070C000014E0FCA3E0FDA3E0FEA3E0FF90003B9F
:10071C001208867B017A0079001200C37B017A00F3
:10072C007900E4FDFF12122BE4900034F0900034B9
:10073C00E0FFC3940740030205FBEF25E025E0240E
:10074C00F9F582E43413F583120876900014E0F87E
:10075C00A3E0F9A3E0FAA3E0FBC312084D702B7BD6
:10076C00FF7A1379EFFD7F0112122BC2B67FDC7E6C
:10077C0005121513D2B67FD07E071215137BFF7AA4
:10078C001379F4E4FD7F0112122B900034E004F095
:02079C00809B40
:03005B000200039D
:10000300C0E0C0F0C083C082C0D075D000C000C0C3
:1000130001C002C003C004C005C006C00720B71C4E
:100023007F0A7E0012151320B712C2B67FDC7E054D
:10003300121513D2B67FD07E07121513D007D00640
:10004300D005D004D003D002D001D000D0D0D082CC
:07005300D083D0F0D0E032B1
:101499000001000200040008001000200040008044
:1014A9000100020004000800100020004000800034
:1015FB00C2C8D2C9D2CAE4F5C0E5C020E7FBC2CA53
:01160B0022BC
:0B1473009000EFE09000ECFFE02FFF86
:10147E001215FBC2C8C2C9D2CA8FC07F057E001228
:0B148E00154AC2CA7F057E0002154A05
:10152F001215FBD2C8C2C9D2CA8FC07F057E001266
:0B153F00154AC2CA7F057E0002154A53
:1013A300C2C9D2CC7F0A7E001215137F3012147E7D
:1013B3007F057E0012154A7F0C12147E7F057E0086
:1013C30012154A7F0112147E7F057E0012154A7F93
:0B13D3000612147E7F057E0002154A02
:0811B0009000F3EEF0A3EFF054
:1011B8007F3412147EE49000F5F0E49000F6F0908D
:1011C80000F6E0FFC394205044EF2480FF12147E01
:1011D8009000F5E070047F8080027F8812147EE41E
:1011E8009000F7F09000F3E475F00112081885F00C
:1011F80082F583E493FF12152F9000F7E004F0E0E6
:10120800C3941040DF9000F6E004F080B29000F53F
:10121800E004F0E0C3940240A17F3612147E7F30D0
:0312280002147E2F
:0B122B00900035EBF0A3EAF0A3E9F01F
:10123600EF70047F808016EFB401047F90800EEF7C
:10124600B402047F888006EFB403027F98EF2DFF77
:1012560012147E900035E0FBA3E0FAA3E0F9120732
:101266009ED39400401E900035A3E475F001120849
:1012760018A9F0FA12079EFF12152F7F057E00129D
:04128600154A80CFB6
:01128A002241
:1014F6001215FB75C0FFD2C8D2C9D2CA00000000BF
:0C1506000000000000000000AFC0C2CADE
:0115120022B6
:0D0A0A009000EDEDF0A3EBF09000ECEFF0AC
:100A1700C394804003020B10A3E0FDC3944040033E
:100A2700020B109000EEE05401F09000ECE0FF5450
:100A37000FFEC3740F9E9000F0F0EFC4540F9000A8
:100A4700ECF0EDC394209000EF50057480F0800324
:100A57007488F09000EDE0541FF0C2AF7F36121497
:100A67007E9000EDE02480FF12147E12147312149E
:100A7700F69000F1E4F0A3EFF01214F6EF7F00FE1A
:100A87009000F1F0FCA3EFF0FD1214F6ECFE9000DD
:100A9700F1EEF0A3EFF0D2AF9000EEE09000F0B4EB
:100AA700011FE025E02499F582E43414F583E493EB
:100AB700FE740193FF9000F1E04EF0A3E04FF08049
:100AC70021E025E02499F582E43414F583E493FECC
:100AD700740193F4FFEEF4FE9000F1E05EF0A3E002
:100AE7005FF0C2AF9000EDE02480FF12147E121475
:100AF700739000F1E0FF12152F9000F1A3E0FF12B1
:090B0700152F7F3012147ED2AFCD
:010B100022C2
:10113200EF20E007E49000FBF080069000FB74FFD4
:10114200F07F3612147EE49000FAF09000FAE0C3C9
:1011520094095055E49000F9F0E49000F8F0C2AF21
:101162009000F9E02480FF12147E9000F8E02480C1
:101172009000FA12147A9000FBE0FF12152F9000F3
:10118200FBE0FF12152FD2AF9000F8E004F0E0C3AD
:10119200940840CA9000F9E004F0E0C3942040B9FA
:0E11A2009000FAE02408F080A27F3002147E54
:1015C200D3EF9400EE9400400A000000EF1F70F089
:0415D2001E80ED2268
:10151300D3EF9400EE940040120000007D0B7CBEDC
:0B152300DCFEDDFCEF1F70E81E80E521
:01152E00229A
:10159800D3EF9400EE9400400C007D19DDFEEF1FA0
:0515A80070EE1E80EB57
:0115AD00221B
:10157F00D3EF9400EE9400400F7D6C7C91DCFEDD88
:08158F00FCEF1F70EB1E80E869
:011597002231
:10154A00D3EF9400EE9400401100007D027C0FDC82
:0A155A00FEDDFCEF1F70E91E80E6C5
:011564002264
:1014B900D3EF9400EE9400401500007D057C347B49
:0E14C900C3DBFEDCFCDDFAEF1F70E51E80E2E7
:0114D70022F2
:10156500E4F593F594F591F592F595F596F5B1F5C4
:0A157500B2F5B3F5B4F5C9F5CA22CA
:0815B9004100FE004100FD00AD
:1014150075A0F0E5A064F060089000FEE004F0809F
:1014250005E49000FEF09000FEE0640370037F0188
:101435002275A00F300A0DE5A0B40F08C20A90006E
:06144500FDE0FF227FFF25
:01144B00227E
:1014D800D3EF9400EE940040147D6E7C00ED1D70F7
:0D14E800011CED4C70F7EF1F70E61E80E355
:0114F50022D4
:0D10AA00900035EFF0A3EBF0A3EAF0A3E90E
:1010B7001215D67D077F0D1213687D037F14121654
:1010C7000C900035E090003BF09000527401F0A3C3
:1010D700F0A37400F0A3743BF0A37401F0A37400B1
:1010E700F0A37439F07A00793B1203E5EF70399079
:1010F7000039E07004A3E06410702D90003BE0FE1F
:10110700900036E0FBA3E0FAA3E0F9EE1207E490C3
:10111700003CE0FE900036E0FBA3E0FAA3E0F99084
:0A1127000001EE1207F680027FFEC1
:01113100229B
:0B0CCB00900035EBF0A3EAF0A3E9F085
:100CD600E49000391215D6E4FD7F0D1213687D806D
:100CE6007F0E1215DB90003C7493F0A37420F090F5
:100CF60000527402F07B01A314F0A37400F0A374F5
:100D06003CF0A3EBF0A37400F0A3743AF07A0079F8
:100D16003C7F0C1203E9900038EFF07058FC743CED
:100D26002CF582E43400F583E0FE900035E0FBA369
:100D3600E0FAA3E0F9AF048F82758300EE1207F69E
:100D4600900039E0FE743C2FF582E43400F583E030
:100D5600FDEE6D900039F00CECB404C2743C2CF539
:100D660082E43400F583E0FF900039E06F6006907E
:100D7600003874FEF07D807F0E12160C900038E06D
:010D8600FF6D
:010D87002249
:0B0E3C00900035EBF0A3EAF0A3E9F012
:100E470090003A7493F0A37470F0E4900040F0FCC3
:100E5700900035E0FBA3E0FAA3E0F9AF048F8275B9
:100E670083001207B7FE743C2FF582E43400F58344
:100E7700EEF0900040E0FE8F827583001207B7FD09
:100E8700EE6D900040F00CECB404C5900050740176
:100E9700F0A37400F0A37441F07B017A00793A7DE6
:100EA70007120D9F1215D79000527409F0A3740111
:100EB700F0A37400F0A3743AF0A37401F0A37400D4
:100EC700F0A37438F07B017A00793A7F0C1203E9BA
:100ED700EF700F900038E07004A3E064187003FF10
:040EE70080027FFE08
:010EEB0022E4
:0B0EEC00900061EBF0A3EAF0A3E9F036
:100EF70090006AEFF0A3EDF0E4FF900061E0FBA340
:100F0700E0FAA3E0F98F827583001207B7FE746CCD
:100F17002FF582E43400F583EEF00FEFB406DBE43F
:100F2700FF900064E0FBA3E0FAA3E0F98F827583EA
:100F3700001207B7FE74722FF582E43400F583EED2
:100F4700F00FEFB406DB900052740CF0A37401F0BD
:100F5700A37400F0A3746AF0A37401F0A37400F003
:100F6700A37468F07B017A00796A7F0E1203E99017
:100F77000067EFF070097F08121327EF20E3069050
:0A0F8700006774FEF0900067E0FFC1
:010F9100223D
:0B0F9200900094EBF0A3EAF0A3E9F05C
:100F9D009000997430F0A3EFF09000507401F0A31D
:100FAD007400F0A3749BF07A007999120D9B900058
:100FBD00527404F0A37401F0A37400F0A37499F0BB
:100FCD00A37401F0A37400F0A37497F07B017A0071
:100FDD0079997F0C1203E9EF7034900097E070045B
:100FED00A3E064907028FE74992EF582E43400F528
:100FFD0083E0FD900094E0FBA3E0FAA3E0F98E827C
:10100D00758300ED1207F60EEEB410DB80027FFE45
:01101D0022B0
:0B0B11009000ABEBF0A3EAF0A3E9F0CA
:100B1C009000B074A0F0A3EFF09000507401F0A31B
:100B2C007400F0A374B2F07B017A0079B07D0212EC
:100B3C000D9F9000527404F0A37401F0A37400F0A4
:100B4C00A374B0F0A37401F0A37400F0A374AEF01E
:100B5C007B017A0079B07F0C1203E9EF70169000DC
:100B6C00AEE07004A3E06404700A9000B0E0540F8F
:100B7C00640A60027FFEEF6003020C0BFE9000AB78
:100B8C00E0FBA3E0FAA3E0F98E827583001207B7AD
:100B9C00FD74B02EF582E43400F583EDF00EEEB466
:100BAC0010DB9000507401F0A37400F0A374C0F03B
:100BBC007B017A0079B07D10120D9F900052741257
:100BCC00F0A37401F0A37400F0A374B0F0A374014B
:100BDC00F0A37400F0A374AEF07B017A0079B07FBF
:100BEC000C1203E9EF70169000AEE07004A3E06401
:0F0BFC0004700A9000B0E0540F640A60027FFE9C
:010C0B0022C6
:100C0C0090007DEBF0A3EAF0A3E9F090007CEDF00E
:100C1C00900082EFF0A3ED120D881203C3EF701653
:100C2C00900080E07004A3E06404700A900082E0FD
:100C3C00540F640A60027FFEEF7052FE90007DE05C
:100C4C00FBA3E0FAA3E0F98E827583001207B7FDCF
:100C5C0074822EF582E43400F583EDF00EEEB410C0
:100C6C00DB9000507401F0A37400F0A37486F07B49
:100C7C00017A0079827D04120D9FE4900080F0A32C
:100C8C00F074061203C5EF64FE6002E4FFEF702EF1
:100C9C0090008274B0F090007CE0900083120D887C
:100CAC001203C3EF7016900080E07004A3E064049C
:0E0CBC00700A900082E0540F640A60027FFE0E
:010CCA002207
:0508D8009000C2EDF0EC
:1008DD009000C574C2F0A3EFF09000507401F0A326
:1008ED007400F0A374C7F07B017A0079C57D021204
:1008FD000D9F9000527404F0A37401F0A37400F0E6
:10090D00A374C5F0A37401F0A37400F0A374C3F035
:10091D007B017A0079C57F0C1203E9EF7016900008
:10092D00C3E07004A3E06404700A9000C5E0540FA6
:10093D00640A60027FFEEF70529000C5F0A3F0A331
:10094D00F0A3F07B0190005004F0A37400F0A374A9
:10095D00C9F07A0079C57D04120D9F90005274067E
:10096D00F0A37401F0A37400F0A374C5F0A3740197
:10097D00F0A37400F0A374C3F07B017A0079C57FF6
:10098D000C1203E9EF64FE6002E4FFEF60037FFEEB
:10099D00229000C574B0F09000C2E09000C6F090B7
:1009AD0000507401F0A37400F0A374C7F07B017ABA
:1009BD000079C57D02120D9F9000527404F0A3744E
:1009CD0001F0A37400F0A374C5F0A37401F0A37437
:1009DD0000F0A374C3F07B017A0079C57F0C12037C
:1009ED00E9EF70169000C3E07004A3E06404700A90
:0C09FD009000C5E0540F640A60027FFE09
:010A090022CA
:10128B009000DA7450F0E4A3F07B0190005004F06E
:10129B00A37400F0A374DCF07A0079DA7D02120DEE
:1012AB009F9000527404F0A37401F0A37400F0A398
:1012BB0074DAF0A37401F0A37400F0A374D8F07B7C
:1012CB00017A0079DA7F0C1203E99000D7EFF07FF7
:0112DB000012
:0112DC0022EF
:100D8800F09000507401F0A37400F0A37484F07A1A
:070D98000079827B017D025E
:0E0D9F0090004CEBF0A3EAF0A3E9F0A3EDF016
:100DAD007D047F051215DB1213647D807F0A1216F8
:100DBD000CE4900053F090004FE0FF900053E0FEE4
:100DCD00C39F502190004CE0FBA3E0FAA3E0F98E05
:100DDD00827583001207B7FD7F09121368900053C7
:100DED00E004F080D17D037F0112136890005374ED
:100DFD00FFF07F05121327900053E014F0E060041C
:100E0D00EF30E2EE7F22121327900050E0FBA3E0BB
:100E1D00FAA3E0F9EF1207E47F2112132790005097
:0F0E2D00E0FBA3E0FAA3E0F9900001EF0207F663
:1012DD00D28200C28200D2827F0A7E001214D87D93
:1012ED000F7F01121368007D3D7F111213687D1E63
:1012FD007F2D121368E4FD7F2C1213687D8D7F2ADC
:10130D001213687D3E7F2B1213687D407F151213DB
:04131D00687F0022C3
:06132100AC07AB05E4FE81
:10132700E4FEC2B4C2B5EF25E0547E4480FF7D08D9
:10133700EF30E703D38001C392B2D2B4EF25E0FFC9
:10134700C2B4DDEC7D08D2B4EE25E0FEA2B3E433EF
:0C1357004EFEC2B4DDF0D2B5D2B4AF0639
:011363002267
:04136400E4FD7F0124
:10136800C2B4C2B5EF25E0547EFF7E08EF30E70334
:10137800D38001C392B2D2B4EF25E0FFC2B4DEEC51
:101388007E08ED30E703D38001C392B2D2B4ED25D5
:0A139800E0FDC2B4DEECD2B5D2B421
:0113A2002228
:0D160C00121321AE07AF04EB4EFD02136870
:0515D600F07D087F0814
:0E15DB00121321AE07AF04EBF45EFD0213689D
:1003C3007404900052F0A37401F0A37400F0A374BA
:1003D30082F0A37401F0A37400F0A37480F07A0098
:0603E30079827B017F0C12
:1003E90090004FEBF0A3EAF0A3E9F090004EEFF094
:1003F90090005974FEF0E4A3F0A3F0EF24F4601028
:1004090024FE701690005A7412F0A37410F0800A3A
:1004190090005A7477F0A37430F090005AE0448049
:10042900FD7F021213687D807F041215DB121364AD
:100439007D807F0A12160CE490005DF0A3F0900015
:1004490052E0FF90005DE0FCA3E0FDC39FEC940047
:10045900502890004FE0FBA3E0FAA3E0F98D828CCD
:10046900831207B7FD7F0912136890005EE004F05C
:1004790070CC90005DE004F080C490004EE0FD7FF8
:1004890001121368E0B40C077D807F0D12160C90E1
:10049900005D7402F0A37458F07F041213279000D2
:1004A9005CEFF090005EE024FFF090005DE034FF27
:1004B900F0E07002A3E0601190005CE0FF20E00929
:1004C90090005BE0FEEF5E60D07D807F0D1215DB52
:1004D90090005DE07002A3E070030205CC7F061274
:1004E9001327EF541B60030205C6900059F0A3E0DF
:1004F900FF90005CE05F30E00690005974FFF090D7
:10050900004EE0640C60030205CC7F0A12132790A9
:10051900005CEFF07F0C121327EF5407FD6026E013
:1005290024FFFFE434FFFEEF7803C333CE33CED884
:10053900F97C002DFFEC3EF9900056E0FBA3E0FAB0
:10054900A3E0C9801690005CE075F008A4FF900054
:1005590056E0FBA3E0FAA3E0F9E5F08FF012082ECC
:1005690090005CE0700204F090005CE0D3941240CB
:10057900037412F0E490005DF0A3F090005CE0FFDA
:10058900C390005EE09F90005DE0940050357F09C4
:10059900121327900053E0FBA3E0FAA3E0F99000BF
:1005A9005DE0FCA3E0F5828C83EF1207F690005E14
:1005B900E004F070C690005DE004F080BE90005940
:1005C90074FEF07D807F0C12160C12136490005992
:0205D900E0FF41
:0105DB0022FD
:1015E9007F14121327EF540370077D037F1412161B
:0115F9000CE5
:0115FA0022CE
:071619007D037F140215DBC5
:0300000002101ECD
:0C101E00787FE4F6D8FD75812102106592
:10079E00BB010689828A83E0225002E722BBFE0259
:0907AE00E32289828A83E493228C
:1007B700BB010CE58229F582E5833AF583E02250F7
:1007C70006E92582F8E622BBFE06E92582F8E22241
:0D07D700E58229F582E5833AF583E493225B
:1007E400BB010689828A83F0225002F722BBFE01F4
:0207F400F322EE
:1007F600F8BB010DE58229F582E5833AF583E8F039
:10080600225006E92582C8F622BBFE05E92582C8E4
:02081600F222CC
:10081800A3F8E0C5F025F0F0E58215827002158393
:06082800E0C838F0E822F0
:10082E00BB010A89828A83F0E5F0A3F0225006F715
:0F083E0009A7F01922BBFE06F3E5F009F3192212
:10084D00EB9FF5F0EA9E42F0E99D42F0EC6480C822
:06085D0064809845F022C2
:10086300E8600FEFC333FFEE33FEED33FDEC33FCF3
:03087300D8F12297
:10087600E493FC740193FD740293FE740393FF22C8
:0C088600ECF0A3EDF0A3EEF0A3EFF022E5
:10005E00E5082438F582E43400F583E005082290A3
:10006E000035300703900038E475F0011208920253
:10007E00079E2000E97F2ED2008018EF540F2490A7
:10008E00D43440D4FF30040BEF24BFB41A00500315
:10009E002461FFE50960021509050CE50C700205E7
:1000AE000B30070E900035E475F001120892EF0246
:1000BE0007E402144C7403D2078003E4C207F50868
:1000CE009000351208A9E4F509F50BF50CE5096069
:1000DE00077F201200A180F5750AFFC201C200C27F
:1000EE0002C203C205C206C20812006DFF700D30B7
:1000FE0007057F001200B2AF0CAE0B22B4255FC213
:10010E00D5C20412006DFF24D0B40A00501A75F047
:10011E000A780930D50508B6FF0106C6A426F620D2
:10012E00D5047002D20380D924CFB41A00EF500444
:10013E00C2E5D2040202B3D20180C6D20080C0D280
:10014E000280BCD2D580BAD20580B47F201200A125
:10015E002002077401B5090040F112005EFF120083
:10016E00A10200DBD208D206809512005EFB1200BF
:10017E005EFA12005EF94A4B700679847A037BFFB1
:10018E0020022EE509602A7E008E827583001207FA
:10019E00B760060EEE650A70F0C2D5EBC0E0EAC09D
:1001AE00E0E9C0E0EE1202FAD0E0F9D0E0FAD0E0D9
:1001BE00FB12079EFF60AAEBC0E0EAC0E0E9C0E0D8
:1001CE001200A1D0E02401F9D0E03400FAD0E0FB17
:1001DE00E50A0460DCD50AD980877BFF7A0279F6BE
:1001EE00D202809C791080027908C206C20880086B
:1001FE00D2D5790A8004790AC2D5E50A047002F5CF
:10020E000AE4FAFDFEFF12005EFC7B0820011312C9
:10021E00005EFD7B1030000A12005EFE12005EFFD3
:10022E007B20EC3382D592D55013C3E43000069F69
:10023E00FFE49EFEE42001039DFDE49CFCE4CBF86C
:10024E00C201EC700CCFCECDCCE824F8F870F38060
:10025E0017C3EF33FFEE33FEED33FDEC33FCEB3320
:10026E00FB994002FB0FD8E9EB300105F8D0E0C452
:10027E0048B201C0E00AEC4D4E4F78207B0070C2B0
:10028E00EAB50A0040BCC0E01202FCD0F0D0E0207B
:10029E000104C4C0E0C4B201C0F012008AD0F0D58F
:1002AE00F0EB0200DB1208B201785301F25801495B
:1002BE004C01454201F64F01FE4401FE49015E43E9
:0802CE0002045501E84601E8B5
:1002D6004501E84703A450014D2D01512E01742B11
:1002E600015523017220038D2A010D480000016C7F
:1002F6003F3F3F00790AA2D5200314300509B91003
:10030600020404B9080104A2D52006025001042003
:1003160002689202B509005034C0E07F203003190C
:100326007F30A20272067205500F120353C202C238
:1003360006C205C2087F30800F300503E9C0E0120F
:1003460000A1300503D0E0F9D0E0B509CC3005179F
:100356007F30B9100C1200A17F583004077F7880D7
:1003660003B908031200A13002057F2D0200A17F08
:10037600202008F87F2B2006F322920280CF286ED9
:10038600756C6C2900D20112005E3001F8C201784A
:100396000930D50108F602010D2D504349581200C7
:1003A6005E2403B405004001E490039F931200927B
:0D03B600743A120092D2037509040201F29C
:10102A000205DCE493A3F8E493A34003F68001F2FB
:10103A0008DFF48029E493A3F85407240CC8C333C7
:10104A00C4540F4420C8834004F456800146F6DF96
:10105A00E4800B01020408102040809015AEE47E63
:10106A00019360BCA3FF543F30E509541FFEE4938B
:10107A00A360010ECF54C025E060A840B8E493A352
:10108A00FAE493A3F8E493A3C8C582C8CAC583CA7D
:10109A00F0A3C8C582C8CAC583CADFE9DEE780BE35
:0115C1000029
:10089200F8E0FBA3A3E0F925F0F0E58215827002EF
:0708A2001583E0FA38F02293
:0908A900EBF0A3EAF0A3E9F02250
:1008B200D083D082F8E4937012740193700DA3A3D5
:1008C20093F8740193F5828883E4737402936860E9
:0608D200EFA3A3A380DFE9
:10144C00EFB40A07740D121457740A309811A89946
:10145C00B8130CC2983098FDA899C298B811F63000
:07146C0099FDC299F59922D8
:00000001FF
