:020003000655A0
:020005000537BD
:0200070006AA47
:0200090006856A
:10061F0031204F4646210032204F464621002020F0
:10062F0020202020202020202020202020200031CA
:10063F00204F4E210032204F4E21000A436F6D6D27
:06064F00616E643A200018
:1007F700102C4A4B4C4A4B00000000000000000040
:020807000000EF
:100655007F0112018B7F0212018B7F0312018B1226
:1006650005E47BFF7A06791FE4FDFF1205957BFF04
:100675007A067926E4FD7F01120595E4FF0202144E
:1005370020B22A7D017F021202C420B2057F021277
:10054700029D30B2FD7BFF7A06792DE4FDFF12058F
:10055700957BFF7A06791FE4FDFF12059520B3D03E
:100567007D017F021202C420B3057F0312029D3072
:10057700B3FD7BFF7A06792DE4FD7F011205957B9C
:0E058700FF7A067926E4FD7F0112059580A219
:1006AA00E4FD7F011202C47BFF7A06792DE4FDFF87
:1006BA001205957BFF7A06793EE4FDFF120595B295
:0306CA009180DD3F
:10068500E4FD7F011202C47BFF7A06792DE4FD7F2C
:10069500011205957BFF7A067944E4FD7F01120579
:0506A50095B29180DB1D
:03000B00020013DD
:10000E00C2AF80FE3212001285D00B75D008FAC234
:10001E008CE58A24F7F58AE58C34D8F58CD28CECF5
:10002E002445F8E6BC030274FFC39581B414004066
:10003E00CF7904783C16E608700BC2AFE630E103C8
:10004E004418F6D2AF08D9EDEA8BD0300003D201B6
:10005E0022D50DFAC0E0C0D0C0F0C083C082C0006F
:10006E00C001C002C003C004C005C006C007E50C35
:10007E0023243DF87440C2AF46F6D2AFD200E50C51
:10008E00FF23243DF80F0808EFB50C0610010343BB
:10009E008701BF04047F00783DE630E4E800E50CFC
:1000AE00C39F5020050C7444250CF8E6FDA681086C
:1000BE00E6AE0CBE030274FFCDF8E86D60E008E614
:1000CE00C0E080F6E50CD39F4027E50C2445F8E60A
:1000DE00AE0CBE030274FFFD18E6CDF8E5816D602F
:1000EE0006D0E0F61880F5E50C2444C8F6150C8011
:1000FE00D3750D05E50C23243DF87F04C2AFE61041
:02010E00E61EEB
:1001100030E00310E20C7F0030E10730E3047F0899
:1001200054F4C2E7C6D2AF54804207C20022F6D2CE
:10013000AFD007D006D005D004D003D002D001D074
:1001400000D082D083D0F0D0D0D0E0C2002278445A
:10015000A68174036006FF0876FFDFFB7F04E47866
:100160003CF608F608DFFA783D763090000374011B
:1001700093C0E0E493C0E0750D05438901758AF0F2
:0B018000758CD8D28CD2AFD2A922031C
:1006ED0000010002000400080010002000400080FE
:1006FD0001000200040008001000200040008000EE
:10080A00C2B5D2C2D2B4E4F580E58020E7FBC2B417
:01081A0022BB
:0506CD00E5222480FF7E
:1006D20012080AC2B5C2C2D2B48F807F057E001250
:0B06E2000780C2B47F057E0002078085
:1007650012080AD2B5C2C2D2B48F807F057E0012AC
:0B0775000780C2B47F057E00020780F1
:1005E400C2C2D2C47F0A7E001207497F301206D2EB
:1005F4007F057E001207807F0C1206D27F057E00E5
:100604001207807F011206D27F057E001207807FC9
:0B061400061206D27F057E0002078060
:040476008E1A8F1B30
:10047A007F341206D2E4F51CE4F51DE51D2480FF45
:10048A001206D2E51C70047F8080027F881206D291
:10049A00E4F51E051BE51BAE1A7002051A14F58257
:1004AA008E83E493FF120765051EE51EC394104070
:1004BA00E2051DE51DC3942040C1051CE51CC3943B
:0D04CA000240B57F361206D27F300206D206
:060595008B178A1889197A
:10059B00EF70047F808013BF01047F90800CBF023B
:1005AB00047F888005BF03027F98EF2DFF1206D2D0
:1005BB00AB17AA18A9191207B4D39400401A05193E
:1005CB00E5197002051814F91207B4FF1207657FBD
:0805DB00057E0012078080D8A4
:0105E30022F5
:10072C0012080A7580FFD2B5D2C2D2B40000000004
:0C073C000000000000000000AF80C2B40C
:01074800228E
:060323008F218D228B23C7
:10032900E521C3948040030203E9E522C3944040D8
:10033900030203E9532301E521540FFFC3740F9FFF
:10034900F525E521C4540FF521E522C39420500574
:10035900752480800375248853221FC2AF7F36120B
:1003690006D21206CDE5212524FF1206D212072C4A
:100379007526008F2712072CEF752700F52612071F
:100389002CEF4227D2AFE523B40118E52525E02457
:10039900EDF582E43406F583E49342267401934231
:1003A90027801EE52525E024EDF582E43406F58352
:1003B900E493FE740193F4FFEEF4FEEF5227EE523C
:1003C90026C2AF1206CDE5212524FF1206D2E52665
:1003D900FF120765AF271207657F301206D2D2AF29
:0103E90022F1
:1004D700EF20E005E4F52B8003752BFF7F3612062E
:1004E700D2E4F52AE52AC394095040E4F529E4F556
:1004F70028C2AFE5292480FF1206D2E528248025EB
:100507002AFF1206D2AF2B120765AF2B120765D24F
:10051700AF0528E528C3940840D70529E529C394E2
:100527002040CB7408252AF52A80B97F300206D2ED
:1007E300D3EF9400EE9400400A000000EF1F70F076
:0407F3001E80ED2255
:10074900D3EF9400EE940040120000007D0B7CBEB4
:0B075900DCFEDDFCEF1F70E81E80E5F9
:010764002272
:1007CD00D3EF9400EE9400400C007D19DDFEEF1F79
:0507DD0070EE1E80EB30
:0107E20022F4
:10079B00D3EF9400EE9400400F7D6C7C91DCFEDD7A
:0807AB00FCEF1F70EB1E80E85B
:0107B3002223
:10078000D3EF9400EE9400401100007D027C0FDC5A
:0A079000FEDDFCEF1F70E91E80E69D
:01079A00223C
:10070D00D3EF9400EE9400401500007D057C347B02
:0E071D00C3DBFEDCFCDDFAEF1F70E51E80E2A0
:01072B0022AB
:10018B00EFD3940340037FFF22743D2F2FF8E6201B
:10019B00E5F4C2AFE64430F6D2AFAE0CEEC39F50DF
:1001AB00210E74442EF8E6F908E618BE030274FF1C
:1001BB00FDED69600909E71919F7090980F31616AE
:1001CB0080DAEED39F400405810581EED39F402258
:1001DB0074442EF808E6F9EEB50C02A98118060650
:1001EB00E6FDED6960091919E70909F71980F31E96
:1001FB0080D9EF2444F8E604F8EF2F049000039322
:09020B00F608EF2F93F67F0022A4
:10021400EFD3940340037FFF22EF23243DF8E6301D
:10022400E5F4C2AFE6548CF6D2AFE50CB5070A7418
:10023400442FF8E6F58102008A502E74452FF8E623
:10024400BF030274FFFD18E6F974442FF8FBE6FCC3
:10025400E96C6008A805E7F61D1980F4A803A60553
:100264001FE50CB507E37F002274452FF8E6FD185F
:1002740086010F74442FF8A601088604E50CB5071F
:1002840002AC81ED6C60080D09A805E6F780F4E581
:090294000CB507DE89817F002210
:10029D00EFD3940340037FFF22EF23243DF8C2AF39
:1002AD00E630E50530E002D2E4D2E2C6D2AF7F00FF
:0702BD0030E2010F02005CBA
:1002C4008FF0E4FFFEE50C23243CF8C2A930F70DBF
:1002D4007F08E6600B2DF660325030800730F1065F
:1002E400EDF660277E020830F010C2AFE610E72575
:1002F4000E30E20CD2AF7F048014C2AFE610E715D3
:1003040054EC4EF6D2AFD2A902008A7F0808EF441B
:0F03140083F4C2AF56C6D2AFD2A954804FFF2296
:030000000203EA0E
:0C03EA00787FE4F6D8FD758147020431ED
:1007B400BB010689828A83E0225002E722BBFE0243
:0907C400E32289828A83E4932276
:1003F60002014EE493A3F8E493A34003F68001F2CE
:1004060008DFF48029E493A3F85407240CC8C33307
:10041600C4540F4420C8834004F456800146F6DFD6
:10042600E4800B01020408102040809007F7E47E68
:10043600019360BCA3FF543F30E509541FFEE493CB
:10044600A360010ECF54C025E060A840B8E493A392
:10045600FAE493A3F8E493A3C8C582C8CAC583CABD
:10046600F0A3C8C582C8CAC583CADFE9DEE780BE75
:0108090000EE
:00000001FF
