:020003000B25CB
:020005000D608C
:020007000A6588
:02000900075E90
:100AA80031204F4646210032204F464621006164DE
:100AB800633A2564002020202020202020202020A8
:100AC800202020202000D7B4CCAC312100D7B4CCD2
:100AD800AC322100D7B4CCAC332100D7B4CCAC3481
:020AE8002100EB
:100B25007F011204FF7F021204FF7F031204FF12EC
:100B35000D15120AEA120CFA7BFF7A0A79A8E4FD70
:100B4500FF1209CC7BFF7A0A79AFE4FD7F01120918
:060B5500CCE4FF0205885C
:100D600020A4FD7D017F0212063820A4057F031216
:070D7000061120A4EB80FB3B
:100A65007F41120B5B8F257E00EF4227EF5227EE69
:100A7500F526752BFF752C0A752DB685262E85272F
:100A85002FFB7A00790E1200827B007A00790EE442
:100A9500FDFF1209CCAF25120DCA7D017F0212069A
:010AA5003818
:020AA60080BD11
:10075E00E4FD7F011206387590FE7BFF7A0A79BDA3
:10076E00E4FD7F011209CC7BFF7A0A79CEE4FD7F8E
:10077E00011209CCE4FD7F011206387590FD7BFF56
:10078E007A0A79BDE4FD7F011209CC7BFF7A0A79E2
:10079E00D5E4FD7F011209CCE4FD7F011206387508
:1007AE0090FB7BFF7A0A79BDE4FD7F011209CC7BB9
:1007BE00FF7A0A79DCE4FD7F011209CCE4FD7F01AA
:1007CE001206387590F77BFF7A0A79BDE4FD7F013A
:1007DE001209CC7BFF7A0A79E3E4FD7F011209CC82
:0307EE0002075EA1
:03000B0002038766
:10038200C2AF80FE3212038685D00B75D008FAC246
:100392008CE58A24F7F58AE58C34D8F58CD28CEC7E
:1003A2002466F8E6BC030274FFC39581B4140040CE
:1003B200CF7904785516E608700BC2AFE630E10338
:1003C2004418F6D2AF08D9EDEA8BD0300903D20A2D
:1003D20022D50DFAC0E0C0D0C0F0C083C082C000F8
:1003E200C001C002C003C004C005C006C007E50CBE
:1003F200232456F87440C2AF46F6D2AFD209E50CB8
:10040200FF232456F80F0808EFB50C06100A034321
:100412008701BF04047F007856E630E4E800E50C6B
:10042200C39F5020050C7465250CF8E6FDA68108D3
:10043200E6AE0CBE030274FFCDF8E86D60E008E69C
:10044200C0E080F6E50CD39F4027E50C2466F8E671
:10045200AE0CBE030274FFFD18E6CDF8E5816D60B7
:1004620006D0E0F61880F5E50C2465C8F6150C8078
:10047200D3750D05E50C232456F87F04C2AFE610B0
:02048200E61E74
:1004840030E00310E20C7F0030E10730E3047F0822
:1004940054F4C2E7C6D2AF54804207C20922F6D24E
:1004A400AFD007D006D005D004D003D002D001D0FD
:1004B40000D082D083D0F0D0D0D0E0C209227865B9
:1004C400A68174036006FF0876FFDFFB7F04E478EF
:1004D40055F608F608DFFA78567630900003740172
:1004E40093C0E0E493C0E0750D05438901758AF07B
:0B04F400758CD8D28CD2AFD2A92203A5
:100C140000010002000400080010002000400080D1
:100C240001000200040008001000200040008000C1
:100DA000C2C8D2C9D2CAE4F5C0E5C020E7FBC2CAB6
:010DB0002220
:050BF400E5402480FF34
:100BF900120DA0C2C8C2C9D2CA8FC07F057E001219
:0B0C09000CC4C2CA7F057E00020CC4B0
:100CA900120DA0D2C8C2C9D2CA8FC07F057E001258
:0B0CB9000CC4C2CA7F057E00020CC400
:100AEA00C2C9D2CC7F0A7E00120C8D7F30120BF95C
:100AFA007F057E00120CC47F0C120BF97F057E0065
:100B0A00120CC47F01120BF97F057E00120CC47F00
:0B0B1A0006120BF97F057E00020CC4E0
:04090B008E468F473E
:10090F007F34120BF9E4F548E4F549E5492480FFFB
:10091F00120BF9E54870047F8080027F88120BF973
:10092F00E4F54A0547E547AE467002054614F582E1
:10093F008E83E493FF120CA9054AE54AC394104035
:10094F00E20549E549C3942040C10548E548C394F1
:0D095F000240B57F36120BF97F30020BF914
:0609CC008B3C8A3D893ED0
:1009D200EF70047F808013BF01047F90800CBF0200
:1009E200047F888005BF03027F98EF2DFF120BF969
:1009F200AB3CAA3DA93E1207F1D39400401A053E32
:100A0200E53E7002053D14F91207F1FF120CA97FB1
:080A1200057E00120CC480D81F
:010A1A0022B9
:100C5300120DA075C0FFD2C8D2C9D2CA00000000CD
:0C0C63000000000000000000AFC0C2CA8A
:010C6F002262
:060697008F3F8D408B41F6
:10069D00E53FC39480400302075DE540C3944040AD
:1006AD000302075D534101E53F540FFFC3740F9FD4
:1006BD00F543E53FC4540FF53FE540C39420500585
:1006CD00754280800375428853401FC2AF7F36123A
:1006DD000BF9120BF4E53F2542FF120BF9120C53E7
:1006ED007544008F45120C53EF754500F544120CFF
:1006FD0053EF4245D2AFE541B40118E54325E0245F
:10070D0014F582E4340CF583E4934244740193426E
:10071D0045801EE54325E02414F582E4340CF58371
:10072D00E493FE740193F4FFEEF4FEEF5245EE52A6
:10073D0044C2AF120BF4E53F2542FF120BF9E5441D
:10074D00FF120CA9AF45120CA97F30120BF9D2AFD5
:01075D002279
:10096C00EF20E005E4F54E8003754EFF7F36120B49
:10097C00F9E4F54DE54DC394095040E4F54CE4F52C
:10098C004BC2AFE54C2480FF120BF9E54B248025BC
:10099C004DFF120BF9AF4E120CA9AF4E120CA9D28F
:1009AC00AF054BE54BC3940840D7054CE54CC394BD
:1009BC002040CB7408254DF54D80B97F30020BF9E2
:10000E00D3EF9400EE9400400A000000EF1F70F052
:04001E001E80ED2231
:100C8D00D3EF9400EE940040120000007D0B7CBE6B
:0B0C9D00DCFEDDFCEF1F70E81E80E5B0
:010CA8002229
:100D7700D3EF9400EE9400400C007D19DDFEEF1FC9
:050D870070EE1E80EB80
:010D8C002244
:100D2F00D3EF9400EE9400400F7D6C7C91DCFEDDE0
:080D3F00FCEF1F70EB1E80E8C1
:010D47002289
:100CC400D3EF9400EE9400401100007D027C0FDC11
:0A0CD400FEDDFCEF1F70E91E80E654
:010CDE0022F3
:100C3400D3EF9400EE9400401500007D057C347BD6
:0E0C4400C3DBFEDCFCDDFAEF1F70E51E80E274
:010C5200227F
:100D1500E4F593F594F591F592F595F596F5B1F51C
:0A0D2500B2F5B3F5B4F5C9F5CA2222
:050DDA00007F0BDFFEAD
:010DDF0022F1
:0F0DB100D2A0D2A1120DDAC2A0120DDAC2A12275
:0A0DC000C2A0D2A1120DDAD2A022C7
:100D4800EF6004C2A08002D2A0120DDAD2A1120D67
:080D5800DAC2A1D2A0020DDAFB
:030CDF00120BD322
:100CE200D2A0120DDAD2A1120DDA30A007C2A112DF
:080CF2000DC0C322C2A1D322F0
:020BD300AE076B
:100BD500E4FDEE30E704D2A08002C2A0120DDAD205
:0E0BE500A1EE25E0FE120DDAC2A10DBD08E45E
:010BF30022DF
:100C7000E4FDD2A1120DDAEE25E0FE30A00343061A
:0C0C800001C2A1120DDA0DBD08E8AF069C
:010C8C002245
:020B5B00AC07E5
:100B5D00AE04120DB17F90120CDFAF04120CDF1238
:100B6D000DB17F91120BD3120CE2120C70AE07E493
:090B7D00FF120D48120DC0AF0675
:010B8600224C
:070DD200C10BC10C0154002C
:100D8D00E553655260FAAF520552EF5407245DF8F2
:030D9D00E6FF224C
:03002300020A1BB3
:100A1B00C0E0C0D075D000C000C004C005C006C087
:010A2B0007C3
:100A2C00309820C298AF99E5522408FDE433FCE5D8
:100A3C00536D7001EC600CAE530553EE5407245DFE
:0A0A4C00F8A607309904C299C20B06
:0F0A5600D007D006D005D004D000D0D0D0E032E9
:080DCA00200BFDD20B8F9922D2
:100BAE008B4F8A508951AB4FAA50A9511207F16051
:100BBE00130551E5517002055014F91207F1FF1299
:050BCE000DCA80E222C7
:100CFA00759850438E40538EFE53890F758BE0755D
:0B0D0A008DFEC2ABD28ED2ACD2BC2258
:1004FF00EFD3940340037FFF2274562F2FF8E6208B
:10050F00E5F4C2AFE64430F6D2AFAE0CEEC39F5067
:10051F00210E74652EF8E6F908E618BE030274FF83
:10052F00FDED69600909E71919F7090980F3161636
:10053F0080DAEED39F400405810581EED39F4022E0
:10054F0074652EF808E6F9EEB50C02A981180606B7
:10055F00E6FDED6960091919E70909F71980F31E1E
:10056F0080D9EF2465F8E604F8EF2F049000039389
:09057F00F608EF2F93F67F00222D
:10058800EFD3940340037FFF22EF232456F8E6308D
:10059800E5F4C2AFE6548CF6D2AFE50CB5070A74A1
:1005A800652FF8E6F5810203FE502E74662FF8E6F3
:1005B800BF030274FFFD18E6F974652FF8FBE6FC2B
:1005C800E96C6008A805E7F61D1980F4A803A605DC
:1005D8001FE50CB507E37F002274662FF8E6FD18C7
:1005E80086010F74652FF8A601088604E50CB50787
:1005F80002AC81ED6C60080D09A805E6F780F4E50A
:090608000CB507DE89817F002298
:10061100EFD3940340037FFF22EF232456F8C2AFA8
:10062100E630E50530E002D2E4D2E2C6D2AF7F0087
:0706310030E2010F0203D0CB
:100638008FF0E4FFFEE50C232455F8C2A930F70D2E
:100648007F08E6600B2DF660325030800730F106E7
:10065800EDF660277E020830F010C2AFE610E725FD
:100668000E30E20CD2AF7F048014C2AFE610E7155B
:1006780054EC4EF6D2AFD2A90203FE7F0808EF442D
:0F06880083F4C2AF56C6D2AFD2A954804FFF221F
:0300000002087F74
:0C087F00787FE4F6D8FD7581680208C699
:1007F100BB010689828A83E0225002E722BBFE0206
:09080100E32289828A83E4932238
:10002600E537242BF8E60537227828300702782BA7
:10003600E475F0011208490207F12000EB7F2ED289
:10004600008018EF540F2490D43440D4FF30040BB2
:10005600EF24BFB41A0050032461FFE5386002158F
:1000660038053BE53B7002053A30070D7828E47504
:10007600F001120849EF020837020B877403D20712
:100086008003E4C207F5378B288A29892AE4F538E4
:10009600F53AF53BE53860077F2012006180F5757B
:1000A60039FFC201C200C202C203C205C206C208AB
:1000B60012002FFF700D3007057F00120072AF3B54
:1000C600AE3A22B4255FC2D5C20412002FFF24D057
:1000D600B40A00501A75F00A783830D50508B6FF0C
:1000E6000106C6A426F620D5047002D20380D924C0
:1000F600CFB41A00EF5004C2E5D204020272D20154
:1001060080C6D20080C0D20280BCD2D580BAD205C9
:1001160080B47F201200612002077401B5380040C8
:10012600F1120026FF12006102009AD208D2068060
:1001360095120026FB120026FA120026F94A4B7089
:100146000679437A037BFF20022EE538602A7E007B
:100156008E8275830012080A60060EEE653970F00D
:10016600C2D5EBC0E0EAC0E0E9C0E0EE1202B9D0C9
:10017600E0F9D0E0FAD0E0FB1207F1FF60AAEBC08D
:10018600E0EAC0E0E9C0E0120061D0E02401F9D065
:10019600E03400FAD0E0FBE5390460DCD539D980DB
:1001A600877BFF7A0279B5D202809C79108002792A
:1001B60008C206C2088008D2D5790A8004790AC224
:1001C600D5E539047002F539E4FAFDFEFF12002682
:1001D600FC7B08200113120026FD7B1030000A125A
:1001E6000026FE120026FF7B20EC3382D592D550E6
:1001F60013C3E43000069FFFE49EFEE42001039D46
:10020600FDE49CFCE4CBF8C201EC700CCFCECDCC67
:10021600E824F8F870F38017C3EF33FFEE33FEEDF2
:1002260033FDEC33FCEB33FB994002FB0FD8E9EBD3
:10023600300105F8D0E0C448B201C0E00AEC4D4EEA
:100246004F78207B0070C2EAB5390040BCC0E0128E
:1002560002BBD0F0D0E0200104C4C0E0C4B201C0AB
:10026600F012004AD0F0D5F0EB02009A12085901BC
:10027600375301B15801084C01044201B54F01BD85
:0F0286004401BD49011D4301C35501A74601A70E
:100295004501A747036350010C2D01102E01332B97
:1002A500011423013120034C2A00CC480000012B06
:1002B5003F3F3F00790AA2D5200314300509B91044
:1002C500020404B9080104A2D52006025001042045
:1002D50002689202B538005034C0E07F203003191F
:1002E5007F30A20272067205500F120312C202C2BB
:1002F50006C205C2087F30800F300503E9C0E01251
:100305000061300503D0E0F9D0E0B538CC300517F1
:100315007F30B9100C1200617F583004077F788058
:1003250003B908031200613002057F2D0200617FC9
:10033500202008F87F2B2006F322920280CF286E1A
:10034500756C6C2900D2011200263001F8C20178C3
:100355003830D50108F60200CC2D5043495812001B
:10036500262403B405004001E490035E9312005275
:0D037500743A120052D2037538040201B12F
:10088B000204C2E493A3F8E493A34003F68001F2BD
:10089B0008DFF48029E493A3F85407240CC8C3336E
:1008AB00C4540F4420C8834004F456800146F6DF3D
:1008BB00E4800B0102040810204080900DD2E47EEE
:1008CB00019360BCA3FF543F30E509541FFEE49332
:1008DB00A360010ECF54C025E060A840B8E493A3F9
:1008EB00FAE493A3F8E493A3C8C582C8CAC583CA24
:1008FB00F0A3C8C582C8CAC583CADFE9DEE780BEDC
:010DD9000019
:10080A00BB010CE58229F582E5833AF583E02250A3
:10081A0006E92582F8E622BBFE06E92582F8E222ED
:0D082A00E58229F582E5833AF583E4932207
:10083700BB010689828A83F0225002F722BBFE01A0
:02084700F3229A
:10084900FAE6FB0808E6F925F0F618E6CA3AF622B0
:10085900D083D082F8E4937012740193700DA3A32E
:1008690093F8740193F5828883E473740293686042
:06087900EFA3A3A380DF42
:100B8700EFB40A07740D120B92740A309811A899E2
:100B9700B8130CC2983098FDA899C298B811F630CE
:070BA70099FDC299F59922A6
:00000001FF
