:020003000340B8
:020005000352A4
:02000700036193
:10032D00538EBF53890F758B66758DFCC28FD28E20
:03033D00D2AB221E
:100340007F0112019B7F0212019B12032DE4FF0229
:02035000022485
:0F035200C2A9B290D2A97D2D7F021202AD80F117
:0B036100B2917D2D7F021202AD80F5ED
:03001B0002030CD1
:04030C00C0E0C0D0BD
:10031000050FE50F7002050EB4F40DE50EB40108EB
:08032000750E00750F00B29389
:05032800D0D0D0E0324E
:03000B00020023CD
:10001E00C2AF80FE3212002285D00B75D008FAC214
:10002E008CE58A24F7F58AE58C34D8F58CD28CECE5
:10003E002417F8E6BC020274FFC39581B414004085
:10004E00CF7903781016E608700BC2AFE630E103E5
:10005E004418F6D2AF08D9EDEA8BD0300003D201A6
:10006E0022D50DFAC0E0C0D0C0F0C083C082C0005F
:10007E00C001C002C003C004C005C006C007E50C25
:10008E00232411F87440C2AF46F6D2AFD200E50C6D
:10009E00FF232411F80F0808EFB50C0610010343D7
:1000AE008701BF03047F007811E630E4E800E50C19
:1000BE00C39F5020050C7416250CF8E6FDA681088A
:1000CE00E6AE0CBE020274FFCDF8E86D60E008E605
:1000DE00C0E080F6E50CD39F4027E50C2417F8E628
:1000EE00AE0CBE020274FFFD18E6CDF8E5816D6020
:1000FE0006D0E0F61880F5E50C2416C8F6150C802F
:10010E00D3750D05E50C232411F87F04C2AFE6105C
:02011E00E61EDB
:1001200030E00310E20C7F0030E10730E3047F0889
:1001300054F4C2E7C6D2AF54804207C20022F6D2BE
:10014000AFD007D006D005D004D003D002D001D064
:1001500000D082D083D0F0D0D0D0E0C20022781678
:10016000A68174026006FF0876FFDFFB7F03E47858
:1001700010F608F608DFFA78117630900003740163
:1001800093C0E0E493C0E0750D05438901758AF0E2
:0B019000758CD8D28CD2AFD2A922020D
:10019B00EFD3940240037FFF2274112F2FF8E62038
:1001AB00E5F4C2AFE64430F6D2AFAE0CEEC39F50CF
:1001BB00210E74162EF8E6F908E618BE020274FF3B
:1001CB00FDED69600909E71919F7090980F316169E
:1001DB0080DAEED39F400405810581EED39F402248
:1001EB0074162EF808E6F9EEB50C02A9811806066E
:1001FB00E6FDED6960091919E70909F71980F31E86
:10020B0080D9EF2416F8E604F8EF2F04900003933F
:09021B00F608EF2F93F67F002294
:10022400EFD3940240037FFF22EF232411F8E6303A
:10023400E5F4C2AFE6548CF6D2AFE50CB5070A7408
:10024400162FF8E6F58102009A502E74172FF8E65F
:10025400BF020274FFFD18E6F974162FF8FBE6FCE2
:10026400E96C6008A805E7F61D1980F4A803A60543
:100274001FE50CB507E37F002274172FF8E6FD187D
:1002840086010F74162FF8A601088604E50CB5073D
:1002940002AC81ED6C60080D09A805E6F780F4E571
:0902A4000CB507DE89817F002200
:1002AD008FF0E4FFFEE50C232410F8C2A930F70D02
:1002BD007F08E6600B2DF660325030800730F10676
:1002CD00EDF660277E020830F010C2AFE610E7258C
:1002DD000E30E20CD2AF7F048014C2AFE610E715EA
:1002ED0054EC4EF6D2AFD2A902009A7F0808EF4423
:0F02FD0083F4C2AF56C6D2AFD2A954804FFF22AE
:0300000002000EED
:0C000E00787FE4F6D8FD75812002015EC9
:00000001FF
