:02097A00000E6D
:02097C00091759
:02097E00094E20
:1006970073656E6420646174610A0D000A2B2A2A4F
:1006A7002A2A2A2A2A2A2A2053455249414C2050CD
:1006B70052494E54207573696E6720433531206166
:1006C7006E64205254582D35312074696E79202A72
:1006D7002A2A2A2A2A2A2A2A2A2A2A2A2A2A2B0A92
:1006E7007C20546869732070726F6772616D20692E
:1006F7007320612073696D706C65206578616D701A
:100707006C6520776974682073657269616C2E2047
:1007170020202020202020202020202020202020D2
:10072700207C0A7C20202020202020202020202020
:1007370020202020202020202020202020202020B2
:1007470020202020202020202020202020202D2D88
:100757002D2D74616F74616F2020202020202020B0
:10076700202020207C0A2B2D2D2D2D2D2D2D2D2DBC
:100777002D2D2D2D2D2D2D2D2D2D2D2D2D2D2D2DA2
:100787002D2D2D2D2D2D2D2D2D2D2D2D2D2D2D2D92
:100797002D2D2D2D2D2D2D2D2D2D2D2D2D2D2D2D82
:0A07A7002D2D2D2D2D2D2D2B0A00D8
:10000E007F011204FF7F021204FF120935E4FF0282
:02001E00058853
:100917007BFF7A0679971208F27D327F021206383A
:0E0927007F021206117D967F0212063880E2D2
:10094E007DDC7F021206387BFF7A0679A3120088BF
:02095E0080EE29
:03000B0002038766
:10038200C2AF80FE3212038685D00B75D008FAC246
:100392008CE58A24F7F58AE58C34D8F58CD28CEC7E
:1003A2002416F8E6BC020274FFC39581B41400401F
:1003B200CF7903780F16E608700BC2AFE630E1037F
:1003C2004418F6D2AF08D9EDEA8BD0300903D20A2D
:1003D20022D50DFAC0E0C0D0C0F0C083C082C000F8
:1003E200C001C002C003C004C005C006C007E50CBE
:1003F200232410F87440C2AF46F6D2AFD209E50CFE
:10040200FF232410F80F0808EFB50C06100A034367
:100412008701BF03047F007810E630E4E800E50CB2
:10042200C39F5020050C7415250CF8E6FDA6810823
:10043200E6AE0CBE020274FFCDF8E86D60E008E69D
:10044200C0E080F6E50CD39F4027E50C2416F8E6C1
:10045200AE0CBE020274FFFD18E6CDF8E5816D60B8
:1004620006D0E0F61880F5E50C2415C8F6150C80C8
:10047200D3750D05E50C232410F87F04C2AFE610F6
:02048200E61E74
:1004840030E00310E20C7F0030E10730E3047F0822
:1004940054F4C2E7C6D2AF54804207C20922F6D24E
:1004A400AFD007D006D005D004D003D002D001D0FD
:1004B40000D082D083D0F0D0D0D0E0C20922781509
:1004C400A68174026006FF0876FFDFFB7F03E478F1
:1004D4000FF608F608DFFA7810763090097A74017E
:1004E40093C0E0E493C0E0750D05438901758AF07B
:0B04F400758CD8D28CD2AFD2A92202A6
:07097200C10BC10C010E00D6
:030023000209606F
:10096000309807C29885990ED20C309904C299C26A
:020970000B3248
:08000300200BFDD20B8F9922A6
:1008F2008B228A238924AB22AA23A9241207B1605E
:10090200130524E5247002052314F91207B1FF121E
:05091200000380E22259
:10093500759850438E40538EFE53890F758BE07525
:090945008DFEC2ABD28ED2AC22B1
:1004FF00EFD3940240037FFF2274102F2FF8E620D2
:10050F00E5F4C2AFE64430F6D2AFAE0CEEC39F5067
:10051F00210E74152EF8E6F908E618BE020274FFD4
:10052F00FDED69600909E71919F7090980F3161636
:10053F0080DAEED39F400405810581EED39F4022E0
:10054F0074152EF808E6F9EEB50C02A98118060607
:10055F00E6FDED6960091919E70909F71980F31E1E
:10056F0080D9EF2415F8E604F8EF2F0490097A9359
:09057F00F608EF2F93F67F00222D
:10058800EFD3940240037FFF22EF232410F8E630D4
:10059800E5F4C2AFE6548CF6D2AFE50CB5070A74A1
:1005A800152FF8E6F5810203FE502E74162FF8E693
:1005B800BF020274FFFD18E6F974152FF8FBE6FC7C
:1005C800E96C6008A805E7F61D1980F4A803A605DC
:1005D8001FE50CB507E37F002274162FF8E6FD1817
:1005E80086010F74152FF8A601088604E50CB507D7
:1005F80002AC81ED6C60080D09A805E6F780F4E50A
:090608000CB507DE89817F002298
:10061100EFD3940240037FFF22EF232410F8C2AFEF
:10062100E630E50530E002D2E4D2E2C6D2AF7F0087
:0706310030E2010F0203D0CB
:100638008FF0E4FFFEE50C23240FF8C2A930F70D74
:100648007F08E6600B2DF660325030800730F106E7
:10065800EDF660277E020830F010C2AFE610E725FD
:100668000E30E20CD2AF7F048014C2AFE610E7155B
:1006780054EC4EF6D2AFD2A90203FE7F0808EF442D
:0F06880083F4C2AF56C6D2AFD2A954804FFF221F
:0300000002083FB4
:0C083F00787FE4F6D8FD75813802088649
:1007B100BB010689828A83E0225002E722BBFE0246
:0907C100E32289828A83E4932279
:10002600E5342428F8E605342278253007027828B6
:10003600E475F0011208090207B12000EB7F2ED209
:10004600008018EF540F2490D43440D4FF30040BB2
:10005600EF24BFB41A0050032461FFE53560021592
:10006600350538E5387002053730070D7825E47513
:10007600F001120809EF0207F70208CB7403D20752
:100086008003E4C207F5348B258A268927E4F535F3
:10009600F537F538E53560077F2012006180F57584
:1000A60036FFC201C200C202C203C205C206C208AE
:1000B60012002FFF700D3007057F00120072AF3857
:1000C600AE3722B4255FC2D5C20412002FFF24D05A
:1000D600B40A00501A75F00A783530D50508B6FF0F
:1000E6000106C6A426F620D5047002D20380D924C0
:1000F600CFB41A00EF5004C2E5D204020272D20154
:1001060080C6D20080C0D20280BCD2D580BAD205C9
:1001160080B47F201200612002077401B5350040CB
:10012600F1120026FF12006102009AD208D2068060
:1001360095120026FB120026FA120026F94A4B7089
:100146000679437A037BFF20022EE535602A7E007E
:100156008E827583001207CA60060EEE653670F051
:10016600C2D5EBC0E0EAC0E0E9C0E0EE1202B9D0C9
:10017600E0F9D0E0FAD0E0FB1207B1FF60AAEBC0CD
:10018600E0EAC0E0E9C0E0120061D0E02401F9D065
:10019600E03400FAD0E0FBE5360460DCD536D980E1
:1001A600877BFF7A0279B5D202809C79108002792A
:1001B60008C206C2088008D2D5790A8004790AC224
:1001C600D5E536047002F536E4FAFDFEFF12002688
:1001D600FC7B08200113120026FD7B1030000A125A
:1001E6000026FE120026FF7B20EC3382D592D550E6
:1001F60013C3E43000069FFFE49EFEE42001039D46
:10020600FDE49CFCE4CBF8C201EC700CCFCECDCC67
:10021600E824F8F870F38017C3EF33FFEE33FEEDF2
:1002260033FDEC33FCEB33FB994002FB0FD8E9EBD3
:10023600300105F8D0E0C448B201C0E00AEC4D4EEA
:100246004F78207B0070C2EAB5360040BCC0E01291
:1002560002BBD0F0D0E0200104C4C0E0C4B201C0AB
:10026600F012004AD0F0D5F0EB02009A12081901FC
:10027600375301B15801084C01044201B54F01BD85
:0F0286004401BD49011D4301C35501A74601A70E
:100295004501A747036350010C2D01102E01332B97
:1002A500011423013120034C2A00CC480000012B06
:1002B5003F3F3F00790AA2D5200314300509B91044
:1002C500020404B9080104A2D52006025001042045
:1002D50002689202B535005034C0E07F2030031922
:1002E5007F30A20272067205500F120312C202C2BB
:1002F50006C205C2087F30800F300503E9C0E01251
:100305000061300503D0E0F9D0E0B535CC300517F4
:100315007F30B9100C1200617F583004077F788058
:1003250003B908031200613002057F2D0200617FC9
:10033500202008F87F2B2006F322920280CF286E1A
:10034500756C6C2900D2011200263001F8C20178C3
:100355003530D50108F60200CC2D5043495812001E
:10036500262403B405004001E490035E9312005275
:0D037500743A120052D2037535040201B132
:10084B000204C2E493A3F8E493A34003F68001F2FD
:10085B0008DFF48029E493A3F85407240CC8C333AE
:10086B00C4540F4420C8834004F456800146F6DF7D
:10087B00E4800B0102040810204080900972E47E92
:10088B00019360BCA3FF543F30E509541FFEE49372
:10089B00A360010ECF54C025E060A840B8E493A339
:1008AB00FAE493A3F8E493A3C8C582C8CAC583CA64
:1008BB00F0A3C8C582C8CAC583CADFE9DEE780BE1C
:01097900007D
:1007CA00BB010CE58229F582E5833AF583E02250E4
:1007DA0006E92582F8E622BBFE06E92582F8E2222E
:0D07EA00E58229F582E5833AF583E4932248
:1007F700BB010689828A83F0225002F722BBFE01E1
:02080700F322DA
:10080900FAE6FB0808E6F925F0F618E6CA3AF622F0
:10081900D083D082F8E4937012740193700DA3A36E
:1008290093F8740193F5828883E473740293686082
:06083900EFA3A3A380DF82
:1008CB00EFB40A07740D1208D6740A309811A89960
:1008DB00B8130CC2983098FDA899C298B811F6308D
:0708EB0099FDC299F5992265
:00000001FF
