:02000300116486
:0200050011E305
:020007000FDA0E
:02000900137B67
:1012330031204F4646210032204F46462100504977
:1012430044205374617274212020005049446E7508
:061253006D3A2564210044
:031387000143011E
:10116400E4F593F594F591F592F595F596F5B1F5C9
:10117400B2F5B3F5B4F5C9F5CA1211A87BFF7A121A
:101184007933E4FDFF1211157BFF7A12793AE4FDFD
:101194007F011211157F01120BC47F02120BC4E4EC
:0411A400FF020C4DED
:1011E30020A3177D017F02120CFD20A30A7F0212A8
:1011F3000CD67F03120CD630A3FD20A4E37D017F20
:0912030002120CFD20A4D980FBAD
:100FDA00E4FD7F01120CFD7BFF7A127941E4FDFFEB
:100FEA00121115E543640170397F6D7EE77DFB7C44
:100FFA003D120D5C752AFF752B12752C4E85252D19
:10100A0085262E7B007A0079441206347B007A000A
:10101A007944E4FDFF1211150526E52670C505255C
:10102A0080C1752AFF752B12752C4E85252D8526B4
:10103A002E7B007A0079441206347B007A007944C8
:0A104A00E4FDFF121115B29180863B
:0C137B007DE87F02120CFDE4F54380F4D5
:03000B00020A4C9A
:100A4700C2AF80FE32120A4B85D00B75D008FAC2AE
:100A57008CE58A24F7F58AE58C34D8F58CD28CECB2
:100A67002460F8E6BC030274FFC39581B414004008
:100A7700CF7904785716E608700BC2AFE630E1036A
:100A87004418F6D2AF08D9EDEA8BD0300903D20A61
:100A970022D50DFAC0E0C0D0C0F0C083C082C0002C
:100AA700C001C002C003C004C005C006C007E50CF2
:100AB700232458F87440C2AF46F6D2AFD209E50CEA
:100AC700FF232458F80F0808EFB50C06100A034354
:100AD7008701BF04047F007858E630E4E800E50C9E
:100AE700C39F5020050C745F250CF8E6FDA681080E
:100AF700E6AE0CBE030274FFCDF8E86D60E008E6D1
:100B0700C0E080F6E50CD39F4027E50C2460F8E6AB
:100B1700AE0CBE030274FFFD18E6CDF8E5816D60EB
:100B270006D0E0F61880F5E50C245FC8F6150C80B2
:100B3700D3750D05E50C232458F87F04C2AFE610E2
:020B4700E61EA8
:100B490030E00310E20C7F0030E10730E3047F0856
:100B590054F4C2E7C6D2AF54804207C20922F6D282
:100B6900AFD007D006D005D004D003D002D001D031
:100B790000D082D083D0F0D0D0D0E0C20922785FF3
:100B8900A68174036006FF0876FFDFFB7F04E47823
:100B990057F608F608DFFA785876309000037401A2
:100BA90093C0E0E493C0E0750D05438901758AF0AF
:0B0BB900758CD8D28CD2AFD2A92203D9
:101279000001000200040008001000200040008066
:101289000100020004000800100020004000800056
:10136A00C2C8D2C9D2CAE4F5C0E5C020E7FBC2CAE6
:01137A002250
:05125900E54D2480FFBB
:10125E0012136AC2C8C2C9D2CA8FC07F057E0012DD
:0B126E00130CC2CA7F057E0002130CA7
:1012F10012136AD2C8C2C9D2CA8FC07F057E00123A
:0B130100130CC2CA7F057E0002130C13
:1011A800C2C9D2CC7F0A7E001212D57F3012125EDD
:1011B8007F057E0012130C7F0C12125E7F057E00E5
:1011C80012130C7F0112125E7F057E0012130C7F32
:0B11D8000612125E7F057E0002130C61
:041054008E1A8F1B46
:101058007F3412125EE4F51CE4F51DE51D2480FFC3
:1010680012125EE51C70047F8080027F8812125E77
:10107800E4F51E051BE51BAE1A7002051A14F5826D
:101088008E83E493FF1212F1051EE51EC3941040EF
:10109800E2051DE51DC3942040C1051CE51CC39451
:0D10A8000240B57F3612125E7F3002125EEC
:061115008B278A288929BE
:10111B00EF70047F808013BF01047F90800CBF02AF
:10112B00047F888005BF03027F98EF2DFF12125EAC
:10113B00AB27AA28A92912053CD39400401A0529EC
:10114B00E5297002052814F912053CFF1212F17FF4
:08115B00057E0012130C80D880
:011163002269
:1012B80012136A75C0FFD2C8D2C9D2CA0000000092
:0C12C8000000000000000000AFC0C2CA1F
:0112D40022F7
:060E87008F4C8D4D8B4ED7
:100E8D00E54CC394804003020F4DE54DC3944040A3
:100E9D0003020F4D534E01E54C540FFFC3740F9FCA
:100EAD00F550E54CC4540FF54CE54DC39420500559
:100EBD00754F808003754F88534D1FC2AF7F36121B
:100ECD00125E121259E54C254FFF12125E1212B826
:100EDD007551008F521212B8EF755200F551121262
:100EED00B8EF4252D2AFE54EB40118E55025E024DB
:100EFD0079F582E43412F583E493425174019342FF
:100F0D0052801EE55025E02479F582E43412F583F4
:100F1D00E493FE740193F4FFEEF4FEEF5252EE52A1
:100F2D0051C2AF121259E54C254FFF12125EE55119
:100F3D00FF1212F1AF521212F17F3012125ED2AFC8
:010F4D002281
:1010B500EF20E005E4F55680037556FF7F361212E2
:1010C5005EE4F555E555C394095040E4F554E4F55F
:1010D50053C2AFE5542480FF12125EE553248025E8
:1010E50055FF12125EAF561212F1AF561212F1D21F
:1010F500AF0553E553C3940840D70554E554C3944D
:101105002040CB74082555F55580B97F3002125E15
:10135600D3EF9400EE9400400A000000EF1F70F0F7
:041366001E80ED22D6
:1012D500D3EF9400EE940040120000007D0B7CBE1D
:0B12E500DCFEDDFCEF1F70E81E80E562
:0112F00022DB
:10134000D3EF9400EE9400400C007D19DDFEEF1FFA
:0513500070EE1E80EBB1
:011355002275
:10132700D3EF9400EE9400400F7D6C7C91DCFEDDE2
:08133700FCEF1F70EB1E80E8C3
:01133F00228B
:10130C00D3EF9400EE9400401100007D027C0FDCC2
:0A131C00FEDDFCEF1F70E91E80E605
:0113260022A4
:10129900D3EF9400EE9400401500007D057C347B6B
:0E12A900C3DBFEDCFCDDFAEF1F70E51E80E209
:0112B7002214
:080D5C008F2A8E298D288C27B7
:100D6400E4F536F5357534A0753342753A0A7539AC
:100D7400D775382375373CF53EF53D753CA0753B7A
:100D840040AB2AAA29A928A827AF19AE18AD17ACD9
:100D9400161200118F2E8E2D8D2C8C2BAF11AE10B0
:100DA400AD0FAC0EAB2EAA2DA92CA82B1200158FBB
:100DB400118E108D0F8C0EE4FFFE7D487C44AB1128
:100DC400AA10A90FA80E12020C600F400DE4F51131
:100DD400F510750F48750E44801FE4FFFE7D487CB6
:100DE400C4AB11AA10A90FA80E12020C500BE4F503
:100DF40011F510750F48750EC4AB15AA14A913A8E4
:100E040012AF2EAE2DAD2CAC2B1200118F328E31C1
:100E14008D308C2F852E15852D14852C13852B1242
:100E2400AF11AE10AD0FAC0EAB3AAA39A938A83742
:100E3400120106C004C005C006C007AF2EAE2DAD1A
:100E44002CAC2BAB36AA35A934A833120106D00337
:100E5400D002D001D000120015C004C005C006C0E5
:100E640007AF32AE31AD30AC2FAB3EAA3DA93CA8A2
:100E74003B120106D003D002D001D000120015129B
:020E84000279F1
:010E86002249
:100BC400EFD3940340037FFF2274582F2FF8E620BD
:100BD400E5F4C2AFE64430F6D2AFAE0CEEC39F509C
:100BE400210E745F2EF8E6F908E618BE030274FFBE
:100BF400FDED69600909E71919F7090980F316166B
:100C040080DAEED39F400405810581EED39F402214
:100C1400745F2EF808E6F9EEB50C02A981180606F1
:100C2400E6FDED6960091919E70909F71980F31E52
:100C340080D9EF245FF8E604F8EF2F0490000393C3
:090C4400F608EF2F93F67F002261
:100C4D00EFD3940340037FFF22EF232458F8E630BF
:100C5D00E5F4C2AFE6548CF6D2AFE50CB5070A74D5
:100C6D005F2FF8E6F581020AC3502E74602FF8E667
:100C7D00BF030274FFFD18E6F9745F2FF8FBE6FC65
:100C8D00E96C6008A805E7F61D1980F4A803A60510
:100C9D001FE50CB507E37F002274602FF8E6FD1801
:100CAD0086010F745F2FF8A601088604E50CB507C1
:100CBD0002AC81ED6C60080D09A805E6F780F4E53E
:090CCD000CB507DE89817F0022CD
:100CD600EFD3940340037FFF22EF232458F8C2AFDB
:100CE600E630E50530E002D2E4D2E2C6D2AF7F00BC
:070CF60030E2010F020A9534
:100CFD008FF0E4FFFEE50C232457F8C2A930F70D61
:100D0D007F08E6600B2DF660325030800730F1061B
:100D1D00EDF660277E020830F010C2AFE610E72531
:100D2D000E30E20CD2AF7F048014C2AFE610E7158F
:100D3D0054EC4EF6D2AFD2A9020AC37F0808EF4495
:0F0D4D0083F4C2AF56C6D2AFD2A954804FFF2253
:10000E000202E5E86480F8E933E83360110460F039
:10001E00ED33EC337009E8FCE9FDEAFEEBFF220458
:10002E0060DED3EB9FEA9EE99DE8C2E78CF0C2F753
:10003E0095F0400CE8CCF8E9CDF9EACEFAEBCFFB1F
:10004E001202B085D0F05804700320D5B3E80470C6
:10005E00075002B2D50202EF92D5EC0460F7E4CC61
:10006E00C0E0C398F8603B94186008400DD0E0FBE8
:10007E000202C7E4FBFAC9FC8028E830E406E4C9B2
:10008E00FBE4CAFCE830E305E4C9CACBFCE854073C
:10009E006010F8C3E913F9EA13FAEB13FBEC13FC47
:1000AE00D8F130F52FC3E49CFCEF9BFFEE9AFEEDEA
:1000BE0099FDD0E0FBEF4E4D4C701222DB03020295
:1000CE00ECEC2CFCEF33FFEE33FEED33FDED30E7C1
:1000DE00EB0202C7EF2BFFEE3AFEED39FDD0E0FB4F
:1000EE0050130BBB00030202EFED13FDEE13FEEFF8
:0800FE0013FFEC13FC0202C722
:10010600EC4D6011E8497017ED33EC3304600DE4F3
:10011600FCFFFEFD22E933E8330470F80202E51223
:1001260002B058046009E4CC248150062850090224
:1001360002EF2840030202ECC0E0EB4A7044B980AB
:1001460006D0E0FB0202DBEF4E701CBD8008EBFF21
:10015600EAFEE9FD80EBE98DF0A4FEE5F00201EF91
:10016600E9CDF9EAFEEBFFEF89F0A4FCE5F0CE89D4
:10017600F0A42EFFE435F0CD89F0A42DFEE435F091
:100186008067EF4E7005BD80D780C3EF8BF0A4ACBF
:10019600F0EE8BF0A42CFCE435F0F8EF8AF0A42CFA
:1001A600E5F038FCE433CB8DF0A42CFCE5F03BF80D
:1001B600EE8AF0A42CFCE5F038F8E433CF89F0A4FD
:1001C6002CFCE5F038CF3400CE89F0A42FFFE5F003
:1001D6003EFEE433C98DF0A42EFEE5F039CD8AF05B
:1001E600A42FFFE5F03EFEE43DFD33D0E0FB5007D3
:1001F6000BBB000F0202EFEC2CFCEF33FFEE33FEDD
:06020600ED33FD0202C70A
:10020C0074F8CC6480CCC86480C8F582046043C3A5
:10021C00EB9FF5F0EA9E42F0E99D42F0E89C45F038
:10022C0060305018E5825FFFE582F42B5582FB505D
:10023C00210ABA001D09B90019088016E5825BFB7A
:10024C00E582F42F5582FF50090EBE00050DBD004E
:10025C00010CC3EB9FF5F0EA9E42F0E99D42F0E8F9
:0D026C009C45F06007CC4820E701B3EC2270
:10027900EDD2E7CD33EC3392D524814006E4FFFE7D
:10028900FDFC22FCE4CFCECDCC24E0501174FF80DC
:10029900EDC3CC13CCCD13CDCE13CECF13CF047079
:0702A900F030D5DE020594E0
:1005D800E53E242AF8E6053E227827300702782AE5
:1005E800E475F0011205A202053C2000EB7F2ED233
:1005F800008018EF540F2490D43440D4FF30040BFB
:10060800EF24BFB41A0050032461FFE53F600215D0
:100618003F0542E5427002054130070D7827E47531
:10062800F0011205A2EF02058202120C7403D20730
:100638008003E4C207F53E8B278A288929E4F53F21
:10064800F541F542E53F60077F2012061380F575F6
:1006580040FFC201C200C202C203C205C206C208EC
:100668001205E1FF700D3007057F00120624AF4226
:10067800AE4122B4255FC2D5C2041205E1FF24D0E1
:10068800B40A00501A75F00A783F30D50508B6FF4D
:100698000106C6A426F620D5047002D20380D92408
:1006A800CFB41A00EF5004C2E5D204020911D201F6
:1006B80080C6D20080C0D20280BCD2D580BAD20512
:1006C80080B47F201206132002077401B53F004052
:1006D800F11205D8FF12061302064CD208D2068082
:1006E800951205D8FB1205D8FA1205D8F94A4B70AD
:1006F8000679087A0A7BFF20022EE53F602A7E00F1
:100708008E8275830012055560060EEE654070F006
:10071800C2D5EBC0E0EAC0E0E9C0E0EE120971D052
:10072800E0F9D0E0FAD0E0FB12053CFF60AAEBC08C
:10073800E0EAC0E0E9C0E0120613D0E02401F9D0F5
:10074800E03400FAD0E0FBE5400460DCD540D98015
:1007580087D20280A212095460F7E54070010412A2
:1007680002FAA940600DE540600914F5401209FB42
:10077800EF60F3EA30E702F404C3995077EAF4250E
:10078800400430E701E404F540800D12095460C1CB
:10079800EA054025401202FAEA783DF630E701E41E
:1007A800254004D5400420050114120971E4C0E075
:1007B8001209FB783DE6601320E70714F61205FBE3
:1007C800802204F6D0E014C0E07F001205FBE5406B
:1007D80060071205F21540800B3005031205F2D0B0
:1007E800E002064CD0E00480C512095460A0E54040
:1007F800041202FA783DEAF6E54020050260010499
:05080800240412097137
:10080D0074FF04C0E01209FB1205FBE54020050250
:10081D0060031205F2D0E0B540E87F451206057879
:10082D003DE67F2B30E7047F2DF404C0E012061364
:10083D00D0E075F00A84C0F01205FCD0E01205FC82
:10084D0002064C791080027908C206C2088008D2CF
:10085D00D5790A8004790AC2D5E540047002F540C5
:10086D00E4FAFDFEFF1205D8FC7B082001131205EA
:10087D00D8FD7B1030000A1205D8FE1205D8FF7B7B
:10088D0020EC3382D592D55013C3E43000069FFF80
:10089D00E49EFEE42001039DFDE49CFCE4CBF8C244
:1008AD0001EC700CCFCECDCCE824F8F870F38017A6
:1008BD00C3EF33FFEE33FEED33FDEC33FCEB33FBD7
:1008CD00994002FB0FD8E9EB300105F8D0E0C448A0
:1008DD00B201C0E00AEC4D4E4F78207B0070C2EAA9
:1008ED00B5400040BCC0E0120973D0F0D0E020014B
:1008FD0004C4C0E0C4B201C0F01205FCD0F0D5F0C4
:10090D00EB02064C1205B206E95308505806BA4CD4
:10091D0006B64208544F085C44085C4906CF4308AC
:10092D00625507934607F145075D470A285006BEF5
:10093D002D06C22E06E52B06C62306E3200A112A34
:10094D00067E48000006DDE540B4FF037540061243
:10095D0005D8FC1205D8FD1205D8FE1205D8FF7872
:10096D0036020329790AA2D5200314300509B910DE
:10097D00020404B9080104A2D52006025001042086
:10098D0002689202B53F005034C0E07F2030031959
:10099D007F30A20272067205500F1209CAC202C23E
:1009AD0006C205C2087F30800F300503E9C0E01292
:1009BD000613300503D0E0F9D0E0B53FCC30051774
:1009CD007F30B9100C1206137F583004077F7880E2
:1009DD0003B908031206133002057F2D0206137F9B
:1009ED00202008F87F2B2006F322920280CF7F0073
:1009FD00B4070050052436F8E6FF22286E756C6C9E
:100A0D002900D2011205D83001F8C201783F30D546
:100A1D000108F602067E2D504349581205D82403CD
:100A2D00B405004001E4900A2393120604743A12AF
:0A0A3D000604D203753F04020850BE
:1002B000E9D2E7C933E833F892D5EDD2E7CD33EC94
:0702C00033FC5002B2D5220D
:1002C700EC30E7100FBF000C0EBE00080DBD000498
:1002D7000BEB6014A2D5EB13FCED92E7FD2274FF44
:1002E700FCFDFEFF22E480F8A2D574FF13FC7D809D
:0302F700E480EFB1
:1002FA00F920E72824F950037907E4F42402FB18CB
:10030A00DBFDE624FB5014E9600DE4F618E604F67A
:0F031A00B40A08E4F6D9F57401F60A22C2D52216
:10032900ED33EC3392D5FA602AB4FF33EDC2E77BA3
:10033900FF60067A03794EE4227A03795720D504BF
:100349007A037952224E614E002B494E46002D49BF
:100359004E4600E47A08F608DAFC7B00740722E8C6
:10036900C0E0ECC0E0EDC0E0EEC0E0EFC0E0EA754F
:10037900F010A4CAABF075F04DA42BFBE435F0FCEA
:10038900EA2410FAEB34C5FBEC34D9FCEDC2E7FFE3
:1003990075F056A4F42411C5F0F434C58FF0A42ADD
:1003A900E5F03BE43CF620E7141204FCD0E0FFD072
:1003B900E0FED0E0FDD0E0FC12042F8014F404121A
:1003C90004FCD0E0FFD0E0FED0E0FDD0E0FC12015B
:1003D90006D0E0F8E6FAEDD2E7CD33EC332482FB20
:1003E900E4C3CF33CFCE33CECD33CD33DBF37B076D
:1003F90075F00A846004F6081B0AE5F0F6088FF028
:10040900740AA4FFACF08EF0740AA42CFEACF05070
:10041900010C8DF0740AA42CFDE435F0F608DBDE3E
:0304290074072233
:10042C000202EFEC5D046005E8590470030202E57A
:10043C001202B0580460F6EC4860F2EC7004FDFE59
:10044C00FF22C860DB2481C85009C39860025006A3
:10045C000202EC9850CAF582E9294B4A7005AB822E
:10046C000202DB75F0007C1A7880C3EF9BEE9AEDEC
:10047C0099400DC3EF9BFFEE9AFEED99FDE842F01B
:10048C00DC23ACF0D0E0FFD0E0FED0E0FDAB82206E
:10049C00E7101BEB60BAEC2CFCEF33FFEE33FEEDF8
:1004AC0033FD0202C7E803F830E705C0F075F00031
:1004BC00EF2FFFEE33FEED33FD40B830E7C280AADC
:1004CC003F8000004120000042C80000447A000038
:1004DC00461C400047C35000497424004B189680BA
:1004EC004CBEBC205A0E1BCA6753C21C749DC5AEB1
:1004FC00FB60065407601C232312052AEB5438605A
:10050C0009120516120525120106ECF8EDF9EEFAA2
:10051C00EFCB22EB12052580F1543803241C9004F8
:10052C00CCFE93FC0EEE93FD0EEE930ECE93FF22BB
:03000000020F4E9E
:0C0F4E00787FE4F6D8FD758162020F95F3
:10053C00BB010689828A83E0225002E722BBFE02BD
:09054C00E32289828A83E49322F0
:10055500BB010CE58229F582E5833AF583E022505B
:1005650006E92582F8E622BBFE06E92582F8E222A5
:0D057500E58229F582E5833AF583E49322BF
:10058200BB010689828A83F0225002F722BBFE0158
:02059200F32252
:0E059400C3E49FFFE49EFEE49DFDE49CFC2278
:1005A200FAE6FB0808E6F925F0F618E6CA3AF6225A
:1005B200D083D082F8E4937012740193700DA3A3D8
:1005C20093F8740193F5828883E4737402936860EC
:0605D200EFA3A3A380DFEC
:10120C00EFB40A07740D121217740A309811A899CA
:10121C00B8130CC2983098FDA899C298B811F63042
:07122C0099FDC299F599221A
:100F5A00020B87E493A3F8E493A34003F68001F21B
:100F6A0008DFF48029E493A3F85407240CC8C33398
:100F7A00C4540F4420C8834004F456800146F6DF67
:100F8A00E4800B0102040810204080901387E47E5D
:100F9A00019360BCA3FF543F30E509541FFEE4935C
:100FAA00A360010ECF54C025E060A840B8E493A323
:100FBA00FAE493A3F8E493A3C8C582C8CAC583CA4E
:100FCA00F0A3C8C582C8CAC583CADFE9DEE780BE06
:01138A000062
:00000001FF
