:0208B600000E32
:0208B800071324
:0208BA0006BF77
:10068E0073656E6420646174613A006765744461D9
:10069E0074610A0D00202020202020202020202000
:1006AE002020202020000A436F6D6D616E643A2079
:0106BE00003B
:10081C00102A4A4B4C4A4B0000000000000000001C
:02082C000000CA
:10000E007F011201A37F021201A3120801120653EF
:05001E00E4FF02022CCA
:100713007BFF7A06798E1206EE7F2A7D1012048EF5
:100723007F021202B57BFF7A0679991206EE80E00A
:1006BF00E4FD7F011202DC7BFF7A0679A3E4FDAF34
:1006CF00291205BA7B007A00792AE4FDAF291205B9
:0F06DF00BAB2910529E529B404D6E4F52980D1F2
:03000B0002002BC5
:10002600C2AF80FE3212002A85D00B75D008FAC204
:100036008CE58A24F7F58AE58C34D8F58CD28CECDD
:100046002449F8E6BC020274FFC39581B41400404B
:10005600CF7903784216E608700BC2AFE630E103AB
:100066004418F6D2AF08D9EDEA8BD0300003D2019E
:1000760022D50DFAC0E0C0D0C0F0C083C082C00057
:10008600C001C002C003C004C005C006C007E50C1D
:10009600232443F87440C2AF46F6D2AFD200E50C33
:1000A600FF232443F80F0808EFB50C06100103439D
:1000B6008701BF03047F007843E630E4E800E50CDF
:1000C600C39F5020050C7448250CF8E6FDA6810850
:1000D600E6AE0CBE020274FFCDF8E86D60E008E6FD
:1000E600C0E080F6E50CD39F4027E50C2449F8E6EE
:1000F600AE0CBE020274FFFD18E6CDF8E5816D6018
:1001060006D0E0F61880F5E50C2448C8F6150C80F4
:10011600D3750D05E50C232443F87F04C2AFE61022
:02012600E61ED3
:1001280030E00310E20C7F0030E10730E3047F0881
:1001380054F4C2E7C6D2AF54804207C20022F6D2B6
:10014800AFD007D006D005D004D003D002D001D05C
:1001580000D082D083D0F0D0D0D0E0C2002278483E
:10016800A68174026006FF0876FFDFFB7F03E47850
:1001780042F608F608DFFA784376309008B674013C
:1001880093C0E0E493C0E0750D05438901758AF0DA
:0B019800758CD8D28CD2AFD2A9220205
:100753000001000200040008001000200040008097
:100763000100020004000800100020004000800087
:1008A500C2B5D2C2D2B4E4F580E58020E7FBC2B47C
:0108B5002220
:05073300E50F2480FF2A
:100738001208A5C2B5C2C2D2B48F807F057E00124E
:0B07480007E6C2B47F057E000207E652
:1007CB001208A5D2B5C2C2D2B48F807F057E0012AB
:0B07DB0007E6C2B47F057E000207E6BF
:10065300C2C2D2C47F0A7E001207AF7F30120738AE
:100663007F057E001207E67F0C1207387F057E00A8
:100673001207E67F011207387F057E001207E67F27
:0B068300061207387F057E000207E624
:0404F9008E218F229F
:1004FD007F34120738E4F523E4F524E5242480FF46
:10050D00120738E52370047F8080027F8812073838
:10051D00E4F5250522E522AE217002052114F582B0
:10052D008E83E493FF1207CB0525E525C394104078
:10053D00E20524E524C3942040C10523E523C3949B
:0D054D000240B57F361207387F30020738B4
:0605BA008B198A1A891B4F
:1005C000EF70047F808013BF01047F90800CBF0216
:1005D000047F888005BF03027F98EF2DFF12073844
:1005E000AB19AA1AA91B12084FD39400401A051B75
:1005F000E51B7002051A14F912084FFF1207CB7F92
:08060000057E001207E680D818
:0106080022CF
:100792001208A57580FFD2B5D2C2D2B40000000003
:0C07A2000000000000000000AF80C2B4A6
:0107AE002228
:06033B008F0E8D0F8B10E8
:10034100E50EC394804003020401E50FC3944040CD
:1003510003020401531001E50E540FFFC3740F9FF4
:10036100F512E50EC4540FF50EE50FC394205005A8
:100371007511808003751188530F1FC2AF7F36122C
:100381000738120733E50E2511FF120738120792BD
:100391007513008F14120792EF751400F5131207ED
:1003A10092EF4214D2AFE510B40118E51225E02412
:1003B10053F582E43407F583E493421374019342C5
:1003C10014801EE51225E02453F582E43407F583F9
:1003D100E493FE740193F4FFEEF4FEEF5214EE5237
:1003E10013C2AF120733E50E2511FF120738E513CB
:1003F100FF1207CBAF141207CB7F30120738D2AFF1
:0104010022D8
:10055A00EF20E005E4F51F8003751FFF7F361207C1
:10056A0038E4F51EE51EC394095040E4F51DE4F590
:10057A001CC2AFE51D2480FF120738E51C24802524
:10058A001EFF120738AF1F1207CBAF1F1207CBD2BD
:10059A00AF051CE51CC3940840D7051DE51DC3948F
:1005AA002040CB7408251EF51E80B97F300207381B
:10087E00D3EF9400EE9400400A000000EF1F70F0DA
:04088E001E80ED22B9
:1007AF00D3EF9400EE940040120000007D0B7CBE4E
:0B07BF00DCFEDDFCEF1F70E81E80E593
:0107CA00220C
:10086800D3EF9400EE9400400C007D19DDFEEF1FDD
:0508780070EE1E80EB94
:01087D002258
:10083600D3EF9400EE9400400F7D6C7C91DCFEDDDE
:08084600FCEF1F70EB1E80E8BF
:01084E002287
:1007E600D3EF9400EE9400401100007D027C0FDCF4
:0A07F600FEDDFCEF1F70E91E80E637
:0108000022D5
:10077300D3EF9400EE9400401500007D057C347B9C
:0E078300C3DBFEDCFCDDFAEF1F70E51E80E23A
:010791002245
:07082E00C102C10301280013
:10089200E527652660FAAF260526EF5407243AF8C5
:0308A200E6FF224C
:03002300020609C9
:10060900C0E0C0D075D000C000C004C005C006C09D
:0106190007D9
:10061A00309820C298AF99E5262408FDE433FCE51A
:10062A00276D7001EC600CAE270527EE5407243ABB
:0A063A00F8A607309904C299C20225
:0F064400D007D006D005D004D000D0D0D0E032FF
:080003002002FDD2028F9922B8
:1006EE008B158A168917AB15AA16A91712084F6013
:1006FE00130517E5177002051614F912084FFF12AD
:05070E00000380E2225F
:10080100759850438E40538EFE53890F758BE0755A
:0B0811008DFEC2ABD28ED2ACD2BC2256
:04048E008F158D1623
:10049200E4F5171208928F18BF0D0375180AE518B4
:1004A20064086005E518B47F19E51760351517155E
:1004B200157F081200037F201200037F0812000339
:1004C2008020E5186411601AE51864136014E518B9
:1004D200640A600EAF18A815EFF6FF1200030515A7
:1004E2000517E51614FFE517C39F5006E518640AC1
:0604F20070A1A815E4F65C
:0104F80022E1
:1001A300EFD3940240037FFF2274432F2FF8E620FE
:1001B300E5F4C2AFE64430F6D2AFAE0CEEC39F50C7
:1001C300210E74482EF8E6F908E618BE020274FF01
:1001D300FDED69600909E71919F7090980F3161696
:1001E30080DAEED39F400405810581EED39F402240
:1001F30074482EF808E6F9EEB50C02A98118060634
:10020300E6FDED6960091919E70909F71980F31E7D
:1002130080D9EF2448F8E604F8EF2F049008B6934A
:09022300F608EF2F93F67F00228C
:10022C00EFD3940240037FFF22EF232443F8E63000
:10023C00E5F4C2AFE6548CF6D2AFE50CB5070A7400
:10024C00482FF8E6F5810200A2502E74492FF8E6EB
:10025C00BF020274FFFD18E6F974482FF8FBE6FCA8
:10026C00E96C6008A805E7F61D1980F4A803A6053B
:10027C001FE50CB507E37F002274492FF8E6FD1843
:10028C0086010F74482FF8A601088604E50CB50703
:10029C0002AC81ED6C60080D09A805E6F780F4E569
:0902AC000CB507DE89817F0022F8
:1002B500EFD3940240037FFF22EF232443F8C2AF1C
:1002C500E630E50530E002D2E4D2E2C6D2AF7F00E7
:0702D50030E2010F0200748A
:1002DC008FF0E4FFFEE50C232442F8C2A930F70DA1
:1002EC007F08E6600B2DF660325030800730F10647
:1002FC00EDF660277E020830F010C2AFE610E7255D
:10030C000E30E20CD2AF7F048014C2AFE610E715BA
:10031C0054EC4EF6D2AFD2A90200A27F0808EF44EB
:0F032C0083F4C2AF56C6D2AFD2A954804FFF227E
:03000000020402F5
:0C040200787FE4F6D8FD75814A020449B9
:10084F00BB010689828A83E0225002E722BBFE02A7
:09085F00E32289828A83E49322DA
:10040E00020166E493A3F8E493A34003F68001F29D
:10041E0008DFF48029E493A3F85407240CC8C333EF
:10042E00C4540F4420C8834004F456800146F6DFBE
:10043E00E4800B010204081020408090081CE47E2A
:10044E00019360BCA3FF543F30E509541FFEE493B3
:10045E00A360010ECF54C025E060A840B8E493A37A
:10046E00FAE493A3F8E493A3C8C582C8CAC583CAA5
:10047E00F0A3C8C582C8CAC583CADFE9DEE780BE5D
:0108350000C2
:00000001FF
