:020003000A27CA
:0200050008856C
:020007000C45A6
:020009000AAD3E
:0A06F400013400013500022100016D
:100A2700120B7512082EE4FF1207CE1209D2120913
:100A3700FD7F0112018B7F0212018B7F0312018B55
:050A4700E4FF020214AF
:1008850020A3287D017F021202C420A31B0534E5A5
:1008950034D394804003753480AF34120C3BAF34AD
:1008A500120C407F0312029D30A3FD20A4D27D01CE
:1008B5007F021202C420A415D53403753401AF3468
:1008C500120C3BAF34120C407F0312029D20A4B0E2
:0208D50080FBA6
:020C450080FE2F
:100AAD007F411209A68F35AC35E41203CD7433FBAB
:0F0ABD00FAF9784012032612040112096880E149
:03000B00020013DD
:10000E00C2AF80FE3212001285D00B75D008FAC234
:10001E008CE58A24F7F58AE58C34D8F58CD28CECF5
:10002E00244FF8E6BC030274FFC39581B41400405C
:10003E00CF7904784616E608700BC2AFE630E103BE
:10004E004418F6D2AF08D9EDEA8BD0300003D201B6
:10005E0022D50DFAC0E0C0D0C0F0C083C082C0006F
:10006E00C001C002C003C004C005C006C007E50C35
:10007E00232447F87440C2AF46F6D2AFD200E50C47
:10008E00FF232447F80F0808EFB50C0610010343B1
:10009E008701BF04047F007847E630E4E800E50CF2
:1000AE00C39F5020050C744E250CF8E6FDA6810862
:1000BE00E6AE0CBE030274FFCDF8E86D60E008E614
:1000CE00C0E080F6E50CD39F4027E50C244FF8E600
:1000DE00AE0CBE030274FFFD18E6CDF8E5816D602F
:1000EE0006D0E0F61880F5E50C244EC8F6150C8007
:1000FE00D3750D05E50C232447F87F04C2AFE61037
:02010E00E61EEB
:1001100030E00310E20C7F0030E10730E3047F0899
:1001200054F4C2E7C6D2AF54804207C20022F6D2CE
:10013000AFD007D006D005D004D003D002D001D074
:1001400000D082D083D0F0D0D0D0E0C20022784E50
:10015000A68174036006FF0876FFDFFB7F04E47866
:1001600046F608F608DFFA78477630900003740107
:1001700093C0E0E493C0E0750D05438901758AF0F2
:0B018000758CD8D28CD2AFD2A922031C
:100A8D00000100020004000800100020004000805A
:100A9D00010002000400080010002000400080004A
:100C0000C2C8D2C9D2CAE4F5C0E5C020E7FBC2CA57
:010C100022C1
:050A6D00E5182480FFE4
:100A7200120C00C2C8C2C9D2CA8FC07F057E001242
:0B0A82000B3FC2CA7F057E00020B3F45
:100B2400120C00D2C8C2C9D2CA8FC07F057E00127F
:0B0B34000B3FC2CA7F057E00020B3F92
:10082E0053C9EF53CAEF53C9FE53CAFE53C9FD5302
:10083E00CAFD53C9FB53CAFBE4F5B3F5B4C2C9D222
:10084E00CC7F0AFE120B087F30120A727F057E00E3
:10085E00120B3F7F0C120A727F057E00120B3F7F38
:10086E0001120A727F057E00120B3F7F06120A727A
:07087E007F057E00020B3F25
:04076D008E368F37FE
:100771007F34120A72E4F538E4F539E5392480FF53
:10078100120A72E53870047F8080027F88120A7233
:10079100E4F53A0537E537AE367002053614F582D1
:1007A1008E83E493FF120B24053AE53AC39410407B
:1007B100E20539E539C3942040C10538E538C394D1
:0D07C1000240B57F36120A727F30020A72C4
:0608D7008B408A418942BA
:1008DD00EF70047F808013BF01047F90800CBF02F6
:1008ED00047F888005BF03027F98EF2DFF120A72E7
:1008FD00AB40AA41A942120482D39400401A05428A
:10090D00E5427002054114F9120482FF120B247F97
:08091D00057E00120B3F80D89B
:0109250022AF
:0A0C200000007F027E0FDEFEDFFC05
:010C2A0022A7
:100BC000120C0075C0FFD2C8D2C9C2CAD2CA120C58
:050BD00020AFC0C2CA05
:010BD50022FD
:0604FE008F178D188B1909
:10050400E517C3948040030205C4E518C394404032
:10051400030205C4531901E517540FFFC3740F9F59
:10052400F51BE517C4540FF517E518C394205005BF
:10053400751A808003751A8853181FC2AF7F36124C
:100544000A72120A6DE517251AFF120A72120BC0FD
:10055400751C008F1D120BC0EF751D00F51C120BCE
:10056400C0EF421DD2AFE519B40118E51B25E02404
:100574008DF582E4340AF583E493421C74019342BA
:100584001D801EE51B25E0248DF582E4340AF583E5
:10059400E493FE740193F4FFEEF4FEEF521DEE5269
:1005A4001CC2AF120A6DE517251AFF120A72E51C68
:1005B400FF120B24AF1D120B247F30120A72D2AF2C
:0105C4002214
:0405C5008F3B8D3C9F
:1005C900E53BC394804003020667E53CC394404081
:1005D90003020667530301E53B540FFFC3740F9FE2
:1005E900FFE53BC4540FF53BE53CC394205005752A
:1005F9003D808003753D88533C1FE4F53EF53FEF90
:10060900BB011625E0248DF582E4340AF583E493D1
:10061900423E740193423F801C25E0248DF582E41B
:10062900340AF583E493FE740193F4FFEEF4FEEFCC
:10063900523FEE523EC2AF7F36120A72E53C248029
:10064900FF120A72E53B253DFF120A72E53EFF12D1
:0E0659000B24AF3F120B247F30120A72D2AF77
:010667002270
:1007CE00EF20E005E4F51180037511FF7F36120A64
:1007DE0072E4F510E510C394095040E4F50FE4F50A
:1007EE000EC2AFE50F2480FF120A72E50E2480259B
:1007FE0010FF120A72AF11120B24AF11120B24D27A
:10080E00AF050EE50EC3940840D7050FE50FC39450
:10081E002040CB74082510F51080B97F30020A7283
:100BEC00D3EF9400EE9400400A000000EF1F70F069
:040BFC001E80ED2248
:100B0800D3EF9400EE940040120000007D0B7CBEF1
:0B0B1800DCFEDDFCEF1F70E81E80E536
:010B230022AF
:100BD600D3EF9400EE9400400C007D19DDFEEF1F6C
:050BE60070EE1E80EB23
:010BEB0022E7
:100B8F00D3EF9400EE9400400F7D6C7C91DCFEDD82
:080B9F00FCEF1F70EB1E80E863
:010BA700222B
:100B3F00D3EF9400EE9400401100007D027C0FDC97
:0A0B4F00FEDDFCEF1F70E91E80E6DA
:010B59002279
:100ACC00D3EF9400EE9400401500007D057C347B40
:0E0ADC00C3DBFEDCFCDDFAEF1F70E51E80E2DE
:010AEA0022E9
:100B7500E4F593F594F591F592F595F596F5B1F5BE
:0A0B8500B2F5B3F5B4F5C9F5CA22C4
:050C3500007F0BDFFE53
:010C3A002297
:0F0C1100D2A0D2A1120C35C2A0120C35C2A12262
:0A0C2B00C2A0D2A1120C35D2A02203
:100BA800EF6004C2A08002D2A0120C35D2A1120CB0
:080BB80035C2A1D2A0020C35E8
:030B5A00120A4C30
:100B5D00D2A0120C35D2A1120C3530A007C2A112B1
:080B6D000C2BC322C2A1D3220C
:020A4C00AE07F3
:100A4E00E4FDEE30E704D2A08002C2A0120C35D233
:0E0A5E00A1EE25E0FE120C35C2A10DBD08E48C
:010A6C002267
:100AEB00E4FDD2A1120C35EE25E0FE30A003430647
:0C0AFB0001C2A1120C350DBD08E8AF06C9
:010B070022CB
:0209A600AC079C
:1009A800AE04120C117F90120B5AAF04120B5A129C
:1009B8000C117F91120A4C120B5D120AEBAE07E480
:0909C800FF120BA8120C2BAF0664
:0109D1002203
:1009FD00E5A254CFF5A2E4F5D8F5E9F5F975D902DC
:100A0D00F5F275EA2075FA2075DA4275F34075EB4B
:0A0A1D002075FB2075DB42D2DE22BB
:050C3B008FEA8FFA2290
:050C40008FEB8FFB2289
:1006FE006064000000000000000000000000000028
:10070E0000000000000000000000000000000000DB
:10071E0000000000000000000000000000000000CB
:10072E0000000000000000000000000000000000BB
:10073E0000000000000000000000000000000000AB
:10074E00000000000000000000000000000000009B
:0E075E00000000000000000001440001450002
:10092600AB07E5442401FFE433FE7C007D6412043A
:100936009BEDB54513E5452401FFE433FE7C007DC0
:100946006412049B8D458000AF44054474002FF566
:1009560082E43400F583EBF0E54475F0648485F0B9
:02096600442229
:1009D200750E057B01AD0E7F071204FE050EE50EB6
:1009E200C3943840EE750E077B017D38AF0E1204BA
:0A09F200FE050EE50EC3947840EEFA
:0109FC0022D8
:020968008F16E8
:10096A00E5432408FF74002544F582E43400F58346
:10097A00E0FEC374379EFDE4FB1204FEE54324083F
:10098A00FFC374379516FD7B011204FEAF161209D8
:0B099A00260543E543B46403E4F54385
:0109A500222F
:10018B00EFD3940340037FFF2274472F2FF8E62011
:10019B00E5F4C2AFE64430F6D2AFAE0CEEC39F50DF
:1001AB00210E744E2EF8E6F908E618BE030274FF12
:1001BB00FDED69600909E71919F7090980F31616AE
:1001CB0080DAEED39F400405810581EED39F402258
:1001DB00744E2EF808E6F9EEB50C02A98118060646
:1001EB00E6FDED6960091919E70909F71980F31E96
:1001FB0080D9EF244EF8E604F8EF2F049000039318
:09020B00F608EF2F93F67F0022A4
:10021400EFD3940340037FFF22EF232447F8E63013
:10022400E5F4C2AFE6548CF6D2AFE50CB5070A7418
:100234004E2FF8E6F58102008A502E744F2FF8E60F
:10024400BF030274FFFD18E6F9744E2FF8FBE6FCB9
:10025400E96C6008A805E7F61D1980F4A803A60553
:100264001FE50CB507E37F0022744F2FF8E6FD1855
:1002740086010F744E2FF8A601088604E50CB50715
:1002840002AC81ED6C60080D09A805E6F780F4E581
:090294000CB507DE89817F002210
:10029D00EFD3940340037FFF22EF232447F8C2AF2F
:1002AD00E630E50530E002D2E4D2E2C6D2AF7F00FF
:0702BD0030E2010F02005CBA
:1002C4008FF0E4FFFEE50C232446F8C2A930F70DB5
:1002D4007F08E6600B2DF660325030800730F1065F
:1002E400EDF660277E020830F010C2AFE610E72575
:1002F4000E30E20CD2AF7F048014C2AFE610E715D3
:1003040054EC4EF6D2AFD2A902008A7F0808EF441B
:0F03140083F4C2AF56C6D2AFD2A954804FFF2296
:10032300020477EC5D046005E85904700302046D70
:10033300120438580460F6EC4860F2EC7004FDFED9
:10034300FF22C860DB2481C85009C39860025006AD
:100353000204749850CAF582E9294B4A7005AB82AE
:1003630002046375F0007C1A7880C3EF9BEE9AED6C
:1003730099400DC3EF9BFFEE9AFEED99FDE842F025
:10038300DC23ACF0D0E0FFD0E0FED0E0FDAB822078
:10039300E7101BEB60BAEC2CFCEF33FFEE33FEED02
:1003A30033FD02044FE803F830E705C0F075F000B1
:1003B300EF2FFFEE33FEED33FD40B830E7C280AAE6
:1003C30075F020800E75F010800575F0087D007EB5
:1003D300007F003392D530D5031204F0EC33401084
:1003E300EF33FFEE33FEED33FDEC33FCD5F0ED22BE
:0E03F300E5F0247EA2D513CC92E7CDCEFF22FA
:10040100EDD2E7CD33EC3392D524814006E4FFFEF3
:10041100FDFC22FCE4CFCECDCC24E0501174FF8052
:10042100EDC3CC13CCCD13CDCE13CECF13CF0470EF
:07043100F030D5DE0204F0FB
:10043800E9D2E7C933E833F892D5EDD2E7CD33EC0A
:0704480033FC5002B2D52283
:10044F00EC30E7100FBF000C0EBE00080DBD00040E
:10045F000BEB6014A2D5EB13FCED92E7FD2274FFBA
:10046F00FCFDFEFF22E480F8A2D574FF13FC7D8013
:03047F00E480EF27
:030000000206688D
:0C066800787FE4F6D8FD7581510206AFE2
:10048200BB010689828A83E0225002E722BBFE0278
:09049200E32289828A83E49322AB
:10049B00BC000BBE0029EF8DF084FFADF022E4CC45
:1004AB00F875F008EF2FFFEE33FEEC33FCEE9DEC0E
:1004BB00984005FCEE9DFE0FD5F0E9E4CEFD22ED54
:1004CB00F8F5F0EE8420D21CFEADF075F008EF2F9E
:1004DB00FFED33FD4007985006D5F0F222C398FD8F
:0504EB000FD5F0EA222C
:0E04F000C3E49FFFE49EFEE49DFDE49CFC221D
:1006740002014EE493A3F8E493A34003F68001F24D
:1006840008DFF48029E493A3F85407240CC8C33387
:10069400C4540F4420C8834004F456800146F6DF56
:1006A400E4800B01020408102040809006F4E47EEC
:1006B400019360BCA3FF543F30E509541FFEE4934B
:1006C400A360010ECF54C025E060A840B8E493A312
:1006D400FAE493A3F8E493A3C8C582C8CAC583CA3D
:1006E400F0A3C8C582C8CAC583CADFE9DEE780BEF5
:01076C00008C
:00000001FF
